:100000000C94B80F0C94E00F0C94E00F0C94E00FDC
:100010000C94E00F0C94E00F0C94E00F0C94E00FA4
:100020000C94E00F0C94E00F0C948F1A0C94FE1AB1
:100030000C94E00F0C94E00F0C94E00F0C94E00F84
:100040000C94E00F0C94E00F0C94E00F0C94E00F74
:100050000C94E00F0C94E00F0C94E00F0C94451AF4
:100060000C94E00F0C94E00F0C94E00F0C94E00F54
:100070000C94E00F0C94E00F0C94E00F0C94E00F44
:100080000C94301D0C94E00F0C94E00F0C94E00FD6
:100090000C94E00F0C94E00F0C94E00F0C94E00F24
:1000A0000C94E00F0C94E00F0C94E00F0000000C97
:1000B00018067E43B043F061F031B80EFC0FEE1F1E
:1000C000C033C04DC05F807F005C00082804840AF4
:1000D00000000000FFE2E7E1813000080118070C92
:1000E000078003C001E000C011001F001F003F0097
:1000F0007F00C3A301E001E07BF0FFFF00000000F0
:100100000000600C00103410306A3824E82FFC0F17
:100110002024E82F306A38103410600C00000000F2
:10012000FFFFFF9FF3FF0FC1EF8781C783008001AF
:1001300000800100800100808300808781C70FC19B
:10014000EF9FF3FF000000007077005055FC7577BB
:10015000DC7177DC7577DC7177DC7577DC7177DCE7
:100160007577DCF177DC3576DC3176DCF577DC71C0
:1001700077DC7577DC7177DC7577DC7177FC757708
:10018000005055007077000000000000FF0700FFDE
:100190000300010000010000010000010000010057
:1001A000000100000100000100000100000100004A
:1001B0000100000100000100000100000100000139
:1001C0000000010000010000010000FF0300FF0724
:1001D00000FFFFFF000000007777805755407777DA
:1001E00040777740777740777740777740777740E9
:1001F0008777402776406776402776408777407735
:100200007740777740777740777740777740777791
:10021000805755007777000000000000FF00007F46
:1002200000003F00001F00001F00001F00001F0013
:10023000001F00001F00001F00001F00001F000023
:100240001F00001F00001F00001F00001F00001FF4
:1002500000001F00001F00003F00007F0000FF00A3
:1002600000FFFFFF00003C3C3C3C3C3C0000000029
:10027000000000000000000000000000000000007E
:100280000000000000000000000000003C3C3C3C7E
:100290003C3C0000000000000000000000000000E6
:1002A000000000000000000000000000000000004E
:1002B00000000000000000000000C5B87B374607C2
:1002C0008000000000000840D7FAFFBFD60DA0C78D
:1002D000F8FF3FC60DA0EFFDFF7FEF0D100280007D
:1002E00004400CC0FFFFFFFFFF0DD0FFFFFFFFFF2B
:1002F00001E8FFFFFFFFFF0D0010000800010CE800
:10030000FFFFFFFFFF0DECFFFFFFFFFF0DE6FFFF0D
:10031000FFFFFF0D0C011000001000EAFFFFFFFFC0
:10032000FF0DECFFFFFFFFFF0DE8FFFFFFFFFF0DDD
:100330000080000F00010EE8FFFFF9FFFF0DD0FF66
:10034000FFF9FFFF01C0FFFFF9FFFF0D1000049947
:1003500000080CA0FFFFE1FFFF0DA0FFFFE1FFFF82
:100360000D40FFFFFFFFFF0D8000000000000800B0
:10037000F7DE7B7777070000018080000000000037
:1003800000000000FFFFFFFFFFFFFFFFC7F8FF3F78
:10039000C6FFFF0400000082E07F0000000000E0D4
:1003A0003F0000000000E01F0000000000E00F0020
:1003B00000000000E00F0000000000E00700000067
:1003C0000000E0070000000000E00700000000005F
:1003D000E0030000000000E0030000000000E00374
:1003E0000000000000E0010000000000E00000004C
:1003F000000000E0010000000000E000000000003C
:1004000000E0010000000000E0030000000000E048
:10041000030000000000E0030000000000E007000F
:1004200000000000E0070000000000E007000000FE
:100430000000E00F0000000000E00F0000000000DE
:10044000E01F0000000000E03F0000000000E07F2F
:100450000000000000E0FF0001808000E0FFFFFFDF
:10046000FFFFFFFF00000000000000000000000090
:10047000FEFFFFFFFF3FFEFFFFFFFF3FC00000004A
:100480000003C00000000003C00000000003C00023
:1004900000000003FEFFFFFFFF3FFEFFFFFFFF3FE7
:1004A000C00000000003C00000000003C000000006
:1004B0000003C00000000003FEFFFFFFFF3FFEFF40
:1004C000FFFFFF3FC00000000003C000000000036A
:1004D000C00000000003C00000000003FEFFFFFF9B
:1004E000FF3FFEFFFFFFFF3FC00000000003C00012
:1004F00000000003C00000000003C0000000000373
:10050000FEFFFFFFFF3FFEFFFFFFFF3FFFFFFFFF7D
:10051000FFFF0100000000C000000000008000009C
:10052000000000800100000000C01FFEFFFF7FF8F8
:100530001FFEFFFF7FF80100000000C00000000068
:1005400000800000000000803FFFFFFFFFFC3FFF36
:10055000FFFFFFFC3FFFFFFFFFFC3FFFFFFFFFFC34
:100560000000000000800000000000803FFFFFFF4F
:10057000FFFC3FFFFFFFFFFC3FFFFFFFFFFC3FFFD4
:10058000FFFFFFFC00000000008000000000008072
:100590000100000000C01FFEFFFF7FF81FFEFFFFED
:1005A0007FF80100000000C0000000000080000093
:1005B00000000080380000C0450700440000300003
:1005C00018008203000800200039040004FE4000E7
:1005D00029180082FF8300396000E1EF0701828360
:1005E00081E0E70702440C46E8F72F04383048E47E
:1005F000F36F0400C030D4FB470800003396FBD3F0
:100600000838001C36FFD90844C01373E1DC11829E
:100610003F1CF340DE11390010F3C0DF11298011B7
:10062000FBC0DF11397E1E9B40DE1182011ECBE133
:10063000D811448011F3FFD311386030F2EDDF0898
:1006400070182CF6EDDF08880423E4CD4F0804C3AE
:1006500040ECDC6F04723040689E2F0452088060CA
:10066000BF0702720400E1FF030104030082FF835D
:100670000088000004FE4000700000080020000018
:10068000000030001800000000C045070000000016
:1006900000000000C7FFFF3F00F8FF83FFFF0F00CF
:1006A000E0FF01FCFF0700C0FF00F8FF030080FF30
:1006B00000E0FF010000FF0080FF000000FE0100DD
:1006C0007E000000FC830338000000F8C70F3000F4
:1006D0000000F8FF3F00000000F0FFFF00000000F6
:1006E000F0C7FF03000000F0833F0C000000E001B2
:1006F0000000000000E0000000000000E00000003A
:10070000000000E0008001000000E001FE010000A8
:1007100000E0837F00000000E0C71F00000000F041
:100720008F0710000000F007031C000000F003001A
:100730003F000000F801C03F000000F801F07F001A
:100740000000FC01F8FF000000FE03FCFF010000B8
:10075000FF07FFFF030080FF8FFFFF0700C0FFFFC1
:10076000FFFF0F00E0FFFFFFFF3F00F8FFFFFFFF6D
:10077000FFFFFFFF367740766C706E3674077C3F64
:100780002C3F601F6C0AD81A58181802F00AC00EC5
:10079000F00ED006E008B00BD81AD818601A180668
:1007A0005C177C3D603F6C3E6E786E760E066E6721
:1007B000E400DC368016D008B00AB00AC00A181669
:1007C000EC3468366E4EE40DE262EEEC0EEE6EEE48
:1007D000EC0EE060E6EEEEEE0EEE4E66E60EE0E0CB
:1007E000E6ECEEEE0ECE6E0EEC6CE0E0EEEE8EEE93
:1007F000E07BDF03807FFF02407AEF03C07BEF01E5
:10080000C03B0B00C047EF018077EF01807FEF0115
:100810008071FE010074F0010077F600007FFE0099
:10082000007DE500007F0F00007F7F000060F70083
:100830000076DF000077FF00005FF200007DF4002B
:100840008077FE018047EB008037EB0080700F005F
:10085000007BEF01807BFE01C07BF102C05BFF02E9
:10086000C07FFE03E07BCE03FC007E00F8F93E1F54
:1008700000FCBE0FF0DD9E0F60FBD606C033DE032A
:10088000C0C31C0080F7E80100D0E6000077EE004E
:10089000000E6E0000AE4E0000F1EE000096E0008B
:1008A00080F75E0080F89E02C0F3DE03E00BA6072F
:1008B000E0FCB00300FD2E0CF8ED7F1FFCFE7E3740
:1008C000FE3C7F00FE7C7F7EBE7C7F7BFE7E3E7793
:1008D0007E7E007F7C7F1E7F007F7F7F7C7E7F7F90
:1008E0007C7C7F7FFE307F3CFE087F00F63C773EBD
:1008F000FE7E7F7EFE7E7E7FDE7E3E7B7E7E007F76
:100900007C7E3C7F006E7F3F787E7F3FFE7E7F7FD8
:10091000FE3E7F7EFE0C7700FE307F3CFE7C7F7FBC
:10092000FE7E7F7FFE7E7F7F7E7E3C777C7E007FAB
:10093000187E3C7F807C7E7FFC7D7F7FFE397F3E02
:10094000FE007F00DE3C7F3EEE7C7F7FFE7E3F7FB1
:10095000FE7E3F7FFE7E1E5FFE7E007FFE6C3E774A
:100960007C6E6E7F00767F7F1C3E7F7EFE007F3C2C
:10097000F0FDFC013F1F0000F0F7013EFF1FFF07E5
:10098000E0FFF97FFF9FF707C0FFFD7FFFCFFF0369
:10099000801FF87FFEE7FF0300C0F97D00E0FF0144
:1009A00000FCF37BFCE3F70000FEF77FFEF7FF009F
:1009B000009EF77FEFF77F0000FCEF7FDF0700006E
:1009C00000FCEF3FFFE71F0000F8E307FFF31F0005
:1009D00000001838FEB90F0000C09F7F00F8070024
:1009E00000E0DD7FFEF0030000C0BB77FF010000E8
:1009F00000C0BF7DFFFD030000809F7FFDFE010062
:100A00000000007FDFFE000000003F7F7EDE000070
:100A100000007EFF387F00000000FC3E063F000023
:100A20000000FCFE0E3F00000000007F707E000012
:100A300000007E00FE0000000000773FFF70000015
:100A40000000BF7FEFFE01000000807FFFBD0100BE
:100A500000C08F7FFEFC030000E0DF7700FC070092
:100A600000F0DD3FFCF0070000F01F00FE03000077
:100A700000F08F3FBFC30F000000C07FFFE73F00C3
:100A800000F8E17FFFF73E0000FEF37DFFF77F00F7
:100A900000FFF77E3EE0FF0000D7F77FC0E3E700EE
:100AA00080FFF33FFEE7FF01C0FF03307FCFFF0071
:100AB000C0FFF1037F9F7F008018F83FFF1F0000F9
:100AC0000067FC7FFF1DFF07E0FFFE7FFFBFFF0FFA
:100AD0000078FC3FFF9FFF0F80FFFC3FFF9EFF0F52
:100AE000E0FFF83FFF9EFF1FF0FFF19FFF9DFF1FFC
:100AF000F0FC0180FF9F7F1F70FF0180FF9FFF1FA1
:100B0000F8FFF18FFF9FFF1FF8FFF91FFF1FFF1F67
:100B1000F8FFFD3FFE1F0E0CF8FFFD3FFE0FC0006B
:100B2000F8FFFD77EE0FFF03F8FFFC6FFE87FF076E
:100B3000F0FFFC7FFCC3FF0FF0FFFCFFF8C1FB0FD1
:100B4000F0FFFEFF00E0F70FF0FFFEFF00E0FF0701
:100B5000F0FFFE7FC0C3FF07F07FFE7FE087FF0747
:100B6000E03FFE7FF88FFF07C007FE7FFC1FFF07F7
:100B70000000FE7FFC1FFF0F0078FC7FFC1FFF0FB3
:100B8000C0F3DC7FFE9FFF0FE0F7DC7FFE9FFF1FBF
:100B9000F0EFFD7FFE9FFF1FF0EFFD7FFEBFFF1F09
:100BA000F0FFF93FFF3FFF0FF0FFF13FFF3FFF0F67
:100BB000F8FF011FEF3FFF0FF8FF0100DF3FFF0EBF
:100BC000F8FFE100DF3FFE07F8FFF11F7F3FE0077E
:100BD000F8FFF93FFF3FC003F0FFF93FFF3F0E0072
:100BE000F0FFF97FFF1F1F00F0FFFD7FFF1FFF03D6
:100BF000F0FFFD7FFF1FFF07F0FF3D7FFF8FFF0F1F
:100C0000F0FFFD7EFE87FF1FE0FFFD7D7C80FF1F64
:100C1000C0FFFC7F0080FF1F007CFC7B0087FF1F64
:100C20000000FC7FFC8FFF1F8003FC7FFC8FFF1FF9
:100C3000E07FFC7FFE9FFF0FE0FFFC7FFE9FBF1F5A
:100C4000F0FFFC7FFE9F7F1FF0FFF93FFE9F7F1F9D
:100C5000F0FFF93FFE9FFF1FF0FFF11FFF8FFF0F17
:100C6000F8FFE101FF97FF0FF8FF0100FF17FF0FEB
:100C7000F8F7010EFF1BCE07F8FFE13FFF1F00034F
:100C8000F8FFF17FFF1F0000F8FFF97FFF1F7800DA
:100C900078FFF97FFE1FFE01F0FEFD7FFE1FFF0FB4
:100CA000F0FFFD7FFE8FFF0FF0FFFD7FFE87FF1F30
:100CB000F0FFFD7F1C80FB1FE0FFFDFF0080FF1F9A
:100CC000C0FFFDFFC087FF1FC0FFBCFFF88FFF1FE5
:100CD0000078C8FFFC8FFF1F0000FC7FFE9FFB1FFA
:100CE000C007FC7FFE9FFF1FE07FFC7FFE9FFF0F82
:100CF000F0FFFC7FFE9FFF0FF0FFF87FFEBFFF0FAE
:100D0000F0FFF97FBEBFFF0FF0FFF13FDE3F7F0F27
:100D1000F8FE013EDF3FFF0FF8FE0130EF3FFF0717
:100D2000F8FDF103EF7FFE07F8FBF90FEF7FFC03FF
:100D3000F8FFF91FFF7FFC00F8FFFD7FFF3F380041
:100D4000F8FF7D7FFF1F0003F8FF7D7FFE1FC007B8
:100D5000F8FFFD7EFE0FFE0FF8FFFD7FFE07FF0F81
:100D6000F0FFFD7FFC80FF0FF0FFFC7F0080FF0F96
:100D7000F0FFF87F008EFF0FE03FF83FF89FFF1F66
:100D8000C003F83FFCBFFF1F0000FC3FFEBFEF1F8A
:100D9000FF3FFE7FFE3FFE7FFE7F7F7FFF7FFF7E68
:100DA000FCFFBE7FFFBFFF3FF8FDFE3FFF3EFF0F92
:100DB000F8FF7E7FF7BFFF1EFCFDFE7CFFBFFF3EFE
:100DC000FE7FFF7FFE3FFF7FFF3FFE3FFC0FFE7F6A
:100DD000202074726561737572654974656D4D612B
:100DE000736B203D2000202061747461636B734637
:100DF0006972737420202020203D2000202064612F
:100E00006D616765426F6E75732020202020203D44
:100E100020002020686974706F696E747320202030
:100E200020202020203D200020206D6F6E737465EF
:100E300072547970652020202020203D2000290058
:100E40002C20002020706F736974696F6E20202041
:100E50002020202020203D2028002180100000009C
:100E6000C8002C801000008000000000003E5B4F96
:100E70005B3E3E6B4F6B3E1C3E7C3E1C183C7E3CFA
:100E8000181C577D571C1C5E7F5E1C00183C180008
:100E9000FFE7C3E7FF0018241800FFE7DBE7FF3098
:100EA000483A060E2629792926407F050507407F06
:100EB00005253F5A3CE73C5A7F3E1C1C08081C1C79
:100EC0003E7F14227F22145F5F005F5F06097F016F
:100ED0007F006689956A606060606094A2FFA2945A
:100EE00008047E040810207E201008082A1C080828
:100EF0001C2A08081E101010100C1E0C1E0C303876
:100F00003E3830060E3E0E06000000000000005F76
:100F100000000007000700147F147F14242A7F2A92
:100F20001223130864623649562050000807030054
:100F3000001C2241000041221C002A1C7F1C2A08A0
:100F4000083E080800807030000808080808000003
:100F500060600020100804023E5149453E00427F77
:100F6000400072494949462141494D331814127FC6
:100F70001027454545393C4A494931412111090766
:100F80003649494936464949291E000014000000E7
:100F900040340000000814224114141414140041B9
:100FA00022140802015909063E415D594E7C121176
:100FB000127C7F494949363E414141227F414141AE
:100FC0003E7F494949417F090909013E4141517329
:100FD0007F0808087F00417F41002040413F017F9A
:100FE000081422417F404040407F021C027F7F0462
:100FF00008107F3E4141413E7F090909063E4151AB
:10100000215E7F09192946264949493203017F019A
:10101000033F4040403F1F2040201F3F4038403F9B
:10102000631408146303047804036159494D4300B1
:101030007F4141410204081020004141417F0402E8
:10104000010204404040404000030708002054547F
:1010500078407F284444383844444428384444285D
:101060007F385454541800087E090218A4A49C78B0
:101070007F0804047800447D40002040403D007F0C
:101080001028440000417F40007C047804787C08EC
:101090000404783844444438FC18242418182424C0
:1010A00018FC7C08040408485454542404043F44A5
:1010B000243C4040207C1C2040201C3C4030403CD4
:1010C00044281028444C9090907C4464544C440034
:1010D0000836410000007700000041360800020198
:1010E0000204023C2623263C1EA1A161123A404084
:1010F000207A385454555921555579412154547802
:1011000041215554784020545579400C1E5272129A
:101110003955555559395454545939555454580022
:1011200000457C410002457D420001457C40F0299C
:101130002429F0F0282528F07C54554500205454EB
:101140007C547C0A097F493249494932324848482F
:1011500032324A4848303A4141217A3A4240207876
:10116000009DA0A07D39444444393D4040403D3C71
:1011700024FF2424487E4943662B2FFC2F2BFF0994
:1011800029F620C0887E0903205454794100004488
:101190007D413048484A32384040227A007A0A0A73
:1011A000727D0D19317D2629292F282629292926E6
:1011B00030484D4020380808080808080808382F2B
:1011C00010C8ACBA2F102834FA00007B00000814B5
:1011D0002A142222142A14089500220095AA0055E8
:1011E00000AAAA55AA55AA000000FF00101010FF7F
:1011F00000141414FF001010FF00FF1010F010F086
:10120000141414FC001414F700FF0000FF00FF1476
:1012100014F404FC141417101F10101F101F1414C2
:10122000141F00101010F0000000001F101010100C
:101230001F10101010F010000000FF101010101000
:1012400010101010FF10000000FF140000FF00FF3E
:1012500000001F10170000FC04F4141417101714DA
:1012600014F404F40000FF00F714141414141414FC
:10127000F700F7141414171410101F101F1414146F
:10128000F4141010F010F000001F101F0000001FD9
:1012900014000000FC140000F010F01010FF10FF0C
:1012A000141414FF141010101F00000000F010FFA1
:1012B000FFFFFFFFF0F0F0F0F0FFFFFF0000000085
:1012C00000FFFF0F0F0F0F0F38444438447C2A2AC9
:1012D0003E147E02020606027E027E0263554941EA
:1012E000633844443C04407E201E2006027E0202F5
:1012F00099A5E7A5991C2A492A1C4C7201724C3009
:101300004A4D4D303048784830BC625A463D3E49DF
:101310004949007E0101017E2A2A2A2A2A44445F83
:10132000444440514A444040444A51400000FF0177
:1013300003E080FF000008086B6B08361236243685
:10134000060F090F060000181800000010100030EA
:1013500040FF0101001F01011E00191D1712003C72
:101360003C3C3C0000000000080B000202020000B0
:1013700009040000010202000005240010010524F8
:10138000010101042402060524060001070581036A
:1013900010004009040100020A00000007050202D3
:1013A0004000000705830240000004030904120105
:1013B0000002EF02014041233680000101020301D7
:1013C00041726475696E6F204C4C430041424C3150
:1013D00033303600F0F89C8E8783878E9CF8F000BF
:1013E00000FEFF0303030303070EFCF80000FEFFEB
:1013F0000303030303070EFCF80000FFFF000000D7
:1014000000000000FFFF0000FEFF8383838383C78B
:10141000EE7C380000F8FC0E07030303070EFCF80F
:1014200000003F7FE0C08080C0E07F3FFFFF010100
:101430000101010101FFFF0000FFFF0C0C0C0C1C5F
:101440003E77E3C100007FFFC0C0C0C0C0E0703F76
:101450001F00001F3F70E0C0C0C0E0703F1F0000D1
:101460007FFFC1C1C1C1C1E3773E1C00001F3F70B7
:10147000E0C0C0C0E0703F1F000000000001FFFF9F
:1014800001000000D5F08D14A1C881CFD9F1AF20A3
:101490000021007FD2811000EE8110000B8210002D
:1014A0004B8210006E8210000B821000068110002B
:1014B000268110005D8110009F8110007281100054
:1014C0002681100000809380100000802B203C5665
:1014D0006963746F727920636F6E646974696F6E8B
:1014E0003E20666F756E6421002B203C576F6F6441
:1014F000656E20536869656C643E20666F756E6426
:1015000021002B203C52757374792053776F7264DD
:1015100020666F756E643E20666F756E6421002BC9
:10152000203C506F74696F6E3E20666F756E64214B
:10153000002B203C4B65793E20666F756E64210060
:101540002B203C52696E67206F66204F7269656E72
:10155000746174696F6E3E20666F756E6421002B36
:10156000203C416D756C6574206F66205472756502
:101570002053696768743E20666F756E6421002B86
:10158000203C436F6D706173733E20666F756E64AF
:1015900021006F70656E43686573742829002020F0
:1015A0006D6F646966696564506F7356616C7565CB
:1015B0002020203D200020206D6F646966696564ED
:1015C000506F736974696F6E2020203D20002020C9
:1015D0006E65774974656D20202020202020202012
:1015E0002020203D200020206E65787453746174A3
:1015F00075732020202020202020203D2000202046
:1016000063757272656E74537461747573202020F3
:101610002020203D2000202063757272656E74507A
:101620006F736974696F6E202020203D2000494E41
:10163000544552414354494F4E5F494E464F003E38
:10164000002B204D61746368696E6720656E74724B
:101650007920666F756E64203C004458780058000D
:101660000758780012000778580012001480A00173
:1016700014A21880A04018A02CC8C8802CC84058BC
:10168000780012004078580012EA6880A00268A32F
:101690006E80A0146EA2C0587800C300C0785800B5
:1016A000C4EAC780A009C7A0C8580000CA00CB3848
:1016B0000000CB00F158780091EBF17858009100D0
:1016C000F3587800C3EAF3785800C400FD58780056
:1016D0007D00FD7858004D003C2D20706C617965CF
:1016E0007241747461636B002A2A2A204E6F206D48
:1016F0006F6E73746572202D206E6F206669676847
:101700007421002D3E20706C6179657241747461A2
:10171000636B0029002C20002A2A2A204E6F2065A6
:101720006E74727920666F756E6420666F72206DBC
:101730006F6E7374657220617420706F7369746961
:101740006F6E2028002B204D6F6E737465722066BB
:101750006F756E642100292029002C200066696EB7
:10176000644D6F6E737465722820706F736974694D
:101770006F6E203D20280029002C2000202076615B
:101780006C756520202020202020203D202800533B
:1017900050494E4E45520054454C45504F525445C9
:1017A000520020207370656369616C4658202020C8
:1017B000203D2000218032000000C80000802A6304
:1017C000656C6C203D20004D6F6E737465722064F3
:1017D0006566656174656421002A63656C6C203DF3
:1017E000200001B7050D01D7050B022A0200029760
:1017F000030029002C2000706C6179657220706FE5
:10180000736974696F6E203D202800206174207018
:101810006F736974696F6E20002B20706C6163694F
:101820006E67206D6F6E73746572200073697A65E0
:101830006F66282044554E47454F4E2029203D20B5
:101840000073697A656F6628206D6F6E73746572B8
:1018500053746174732029203D200073697A656F89
:101860006628204D4F4E535445525F5354415453B4
:101870002029203D2000302C03FA0100282C03FCF5
:1018800001003C6C28070100532C05FC01006D4C45
:101890000F040060874C0C030060A38C0FFF013025
:1018A000AB8C0F010030E34C0C030060ED4C0C03DB
:1018B00000601818181818181800181800000000F0
:1018C00000180000EA008218001883180018181881
:1018D0000018000018001800000000180018C818B0
:1018E0000018001800001800180000180018001850
:1018F0000018581800185A0018000018001800EABC
:1019000000181800000018180000181800181818FF
:1019100018180000180000000018801800000000CF
:1019200082EA18180000181818181818181818EB58
:1019300018181810000018001800180018000000EF
:1019400000001800181018000000000018EB180024
:101950001800180018801800180018001800180047
:1019600000001800001818000000000018180000FF
:1019700018005B1810EAEA0018805A00003A0018B4
:1019800000000000001818000000000018000018F7
:101990000018181800001800180018001800180087
:1019A0000000005B185B1800000000001818185BAE
:1019B0001800539120003A80200000803C2D206DBB
:1019C0006F6E7374657241747461636B28290020B3
:1019D00020506C61796572277320686974706F6933
:1019E0006E7473203A20002D3E206D6F6E73746507
:1019F0007241747461636B2829002C2064697370D0
:101A00006C6179586F72456666656374203D20008D
:101A10002C20436F6D70617373203D20002C204B90
:101A2000657973203D20002C204974656D73203D3D
:101A300020002C2041726D6F7572203D20002C20FB
:101A400044414D203D20002C204850203D20002CBA
:101A500020646972203D20002C20706C61796572D1
:101A600059203D20002020706C6179657258203D1E
:101A700020002020006F63006363004620002320C5
:101A8000006D6900727400626800736B005720007B
:101A9000442000573C00573E003C40004076004048
:101AA0003E00405E00FFFFFFFF55AA8824000000B3
:101AB000000000000081307FED307312304E213085
:101AC0003F4C1C10050102051C1D6C200007010283
:101AD00005B405E81C08060102056404382008075F
:101AE00001030CA4025810180101020884027810A6
:101AF0001801010208640280182003010308D401C0
:101B00008C182003010308D401A018200301030846
:101B10004401C80C2003010263FC002C14280201BC
:101B20000263AC0000000000004100000000002043
:101B300000000100104000004000000000220500ED
:101B400000400000020008001002000010400000E9
:101B5000410002010000000000801011410000005F
:101B600000000140004800120400000000000010C6
:101B70008200000041400040001201000801000006
:101B800000000001001180900201000011200004FB
:101B90000000000842400010010002401001014016
:101BA000020000000110120100004000004110027C
:101BB00040000000A854010000A80000010012002D
:101BC0001000010000012002408000010000001010
:101BD000120100004000204110800020020000108F
:101BE000418002080000211000800004010008412B
:101BF0000002401020008042010000400000401020
:101C0000004240100000020800001100080110010D
:101C1000000000810000000044004000011002406C
:101C2000000840001002000200000000000049000F
:101C30000000000000000210008000000001001001
:101C400000000000900D00030700FF0008900D5CED
:101C50005F0700010408D00A00030701FF5458D0B1
:101C60000A045B0701000058D00A5C5F070101000D
:101C700058700904190701FF002C7009465B070121
:101C800001162CC00800192502FF122CC0081A45A5
:101C9000250200002CC008465F250201002C6808C0
:101CA0001A242502FF001668083B452502010B1681
:101CB000F007000E2502FE001EF007515F2502020C
:101CC0000F1EC407000E3403FE0716C4070F24348A
:101CD00003FF0016C407253A3403000016C4073B6F
:101CE000503403010016C407515F3403020016B0DC
:101CF0000725293403FF000AB007363A34030105EB
:101D00000A74070F1D3403FE001E7407425034038B
:101D1000020F1E000000000700000060003E0000EF
:101D20000000C10700008000780400003F800B0025
:101D300000C0030A0000007C0800000080100000C2
:101D40000080100000000006000000800F0000006E
:101D5000F0010000003C0040E001070060F00F7D52
:101D60000820380FF55D2D3829551300FCAF03000E
:101D700000FC29F90F003C0FD91800380F35302D21
:101D8000F807776620E00713696000007666400078
:101D9000003030000000D818000000F80F000000EC
:101DA0000000000000000000FFC1FFFFFFFF00F87F
:101DB000FFFF7F0080FBFFFF0000F0FFFF3F00F010
:101DC000FFFFFF03F0FFFFFF7FE0FFFFFF7FE0FF6C
:101DD000FFFF7FE0FFFFFF07E0FFFFFF01E0BF0F16
:101DE000FE00FC1F077080E30F03600022800340A9
:101DF00000008001000000C0010000E0FF010000C1
:101E0000C0FF01400000C0016000008003700000BE
:101E100080037000000F0FF800001FFFFF0100BFDC
:101E2000FFFF0380FFFFFF03C0FFFFFF03E0FFFF93
:101E3000FFFFFFFF20383E38203E1C1C0808020E22
:101E40003E0E0208081C1C3E180080DDDDDDDDDDD5
:101E50000C018000000000800C81100C280E040092
:101E60001881901E30703F8630BF9F3E180E048947
:101E70003081907C2C303F8618B5103E0648080211
:101E80000C018F1E0030308F0C39800C1E38988268
:101E90001808860C22402C801431281E5E782800F9
:101EA0003E818E3E2200808F22B9A07C1E000088D9
:101EB00000A0AE3E00003F8000F9021E067C900E9E
:101EC0000001AC0C290A3F820001A00C5130008FA8
:101ED0000000A41E2948988200012A3E06302406EC
:101EE00000019E7C00383C8B2200803E1C40048A0E
:101EF0003E010C1E22781E0014018E0C2A00A48BB9
:101F000018008A0C227818800C65801E1C082C8012
:101F10000C55063E0070280018088A7C07000080D7
:101F200030418C3E7D3038803000801E5748048020
:101F300018650E0C007E04001C5482000000008016
:101F40000C488CDDDDDDDDDD000101020102020354
:101F50000102020302030304000103000F0007054E
:101F60000400000203000102043078303000C41D78
:101F700011241FBECFEFDAE0DEBFCDBF11E0A0E03D
:101F8000B1E0EAE5F8E402C005900D92AC33B10788
:101F9000D9F727E0ACE3B1E001C01D92A832B20747
:101FA000E1F71FE0C8EBDFE004C02197FE010E94CB
:101FB0002524C73BD107C9F70E94F11D0C942B249F
:101FC0000C940000809156010895E4ECF2E0A0E04A
:101FD000B8E000800EBC8111012C1197A0FDFDCF4F
:101FE0000192B9F70DB408953F924F925F926F92AC
:101FF0007F928F929F92AF92BF92CF92DF92EF9299
:10200000FF920F931F93CF93DF93D9011796ED9013
:10201000FC901897002351F013962C91139711966A
:102020009C911197299FE00CF11C112450E0FA01BA
:10203000EB59F04E9491FA01EF59F04E7491FA0178
:10204000E35AF04EE491671708F482C0E61708F4EB
:102050007FC0999F602C11244A0F5B1FFA015380A7
:10206000292F30E0F901E85AF04E449112969C90E5
:1020700012971396AC918A2E880C880C880C890CC8
:10208000671B592F550F550F550F659F602D112454
:10209000A89FF0011124E29F6001E39FD00CF29F02
:1020A000D00C1124C8E0D0E080E011E0A92CB12CC4
:1020B00050E0B0E0691578F1681568F5262F30E03A
:1020C0002A193B0937FF02C0295F3F4F73E035955E
:1020D00027957A95E1F72C0D3D2D311D2E0D3F1DD5
:1020E000712C70E0F62FF7704F2E9715B9F0F901AB
:1020F0003490E32DF0E0042C02C0F595E7950A94A6
:10210000E2F7E423F523E85BF04EE4917E0F2A0F1B
:102110003B1F7394EACF70E00111762D690F75159E
:1021200008F0812B110F219709F0C4CFDF91CF91D7
:102130001F910F91FF90EF90DF90CF90BF90AF90E5
:102140009F908F907F906F905F904F903F900895F9
:10215000802F8195EBCFDC01FB018C9187FF02C0C2
:10216000805F8C938C91803114F080518C938081AE
:1021700087FF02C0805F80838081803114F08051AE
:10218000808308950F93CF93DF9300D0CDB7DEB750
:10219000013041F130F0023009F1841B8983621B68
:1021A00024C0641B6A83820F8983BE016E5F7F4FE8
:1021B000CE0101960E94AB108A8120E18202C0010B
:1021C00011242981820F911D27FD9A9580589E4FD9
:1021D0000F900F90DF91CF910F910895640F6A8354
:1021E000821BE2CF840F8983620F6A83DECFFC01FA
:1021F00080917301882311F13FB7F89482E08093B6
:10220000E9002091F200822F90E01816190614F4CC
:1022100081E090E0882339F0289844E640937201E9
:102220004091F1004083222339F02091F2002111E6
:1022300003C02BE62093E8003FBF08958FEF9FEF88
:1022400008952FB7F89483E08093E9009091E80017
:10225000892F807295FF04C09091F20080E4891B61
:102260002FBF0895E1E0F0E00E944711319728F078
:1022700068517C4F8F4F9F4FF9CFAB01FC010E94FB
:102280004711641775078E079F07C8F30895A2E6E4
:10229000B1E02FB7F8947D918D919C9166B52FBFD9
:1022A000A89B05C06F3F18F47F5F8F4F9F4F22E0C0
:1022B000660F771F881F991F2A95D1F7089580917F
:1022C0006A0181110DC082E08093660184E08093F1
:1022D0006701109269011092680181E080936A01A0
:1022E00086E691E00895AB01FC010E944711415040
:1022F0005109E109F10928F068517C4F8F4F9F4F38
:10230000F6CFAB01FC010E944711641775078E07D9
:102310009F07C8F3089540914C0150914D012091C1
:102320004A0130914B0142175307B4F49091E800F1
:102330009570E1F39091E80092FD19C08093F1004F
:1023400080914C0190914D0101968F739927892BB3
:1023500019F48EEF8093E80080914C0190914D012B
:10236000019690934D0180934C0181E0089580E0A7
:102370000895DF92EF92FF920F931F93CF93DF9315
:10238000D82E8A01EB017B01E40EF51ECE15DF0588
:1023900059F0D7FE12C0FE0184910E948B11219644
:1023A0008111F4CF0FEF1FEFC801DF91CF911F9183
:1023B0000F91FF90EF90DF9008958881EECF0F93FB
:1023C0001F93CF93DF931F92CDB7DEB782E089834F
:1023D00042E450E068E673E180E80E94B9110E948F
:1023E0005F11DC0112960D911C910115110589F008
:1023F000D801ED91FC910280F381E02DBE016F5F69
:102400007F4FC801099597FD04C0F801008511852B
:10241000ECCF89810F90DF91CF911F910F9108959B
:10242000615030F02091F100FC0120830196F8CF3B
:10243000289884E6809372010895AF92BF92CF925C
:10244000DF92EF92FF920F931F93CF93DF936C0174
:102450007B018B01040F151FEB015E01AE18BF0855
:10246000C017D10759F06991D601ED91FC91019007
:10247000F081E02DC6010995892B79F7C501DF911F
:10248000CF911F910F91FF90EF90DF90CF90BF9071
:10249000AF9008958F929F92AF92BF92CF92DF92AA
:1024A000EF92FF920F931F93CF93DF936C017B0109
:1024B0008A0180910B01882309F458C0809173012F
:1024C000882309F453C08091500180FF05C080919A
:1024D000E00082608093E000E801B12C8AEFA82E32
:1024E00093E0892E2AE3922E209711F4BB20B9F1B4
:1024F0000E942111811106C0AA94AA20B9F10E945C
:102500003211F2CF8C171D0611F00CF08C2F9FB7F3
:10251000F8948092E9002091E80025FD02C09FBF59
:10252000E3CF282F30E0C21BD30BF701815020F0FE
:1025300041914093F100FACFE20EF31EBB2021F04F
:102540009092E800B12CEBCF8091E80085FDE7CFB9
:102550009092E800BB24B394209709F3F3CF5D98E1
:1025600084E680934F01101611063CF081E090E064
:10257000F6019383828310E000E0C801DF91CF91E0
:102580001F910F91FF90EF90DF90CF90BF90AF9091
:102590009F908F900895CF93DF931F92CDB7DEB7B2
:1025A0006983DC01ED91FC910280F381E02D41E033
:1025B00050E0BE016F5F7F4F09950F90DF91CF9183
:1025C0000895EF92FF920F931F93CF93DF938C01A7
:1025D0007B01D0E0C0E0F701EC0FFD1F64916623A2
:1025E00039F0C8010E94CB12892B11F02196F3CF4C
:1025F000CE01DF91CF911F910F91FF90EF90089541
:1026000083E08093E9008091F200882319F08AE347
:102610008093E80008950E94211190E00895CF93DF
:10262000DF931F92CDB7DEB7FC018485958597FDBA
:1026300008C02FEF3FEF358724870F90DF91CF91B0
:102640000895CE0101960E94F710019719F489812F
:1026500090E0F3CF8FEF9FEFF0CF0F931F93CF93C7
:10266000DF931F92CDB7DEB78C01FC018485958581
:1026700097FF0BC0CE0101960E94F710019771F4ED
:10268000898190E0F80195878487F8018485958594
:102690000F90DF91CF911F910F9108958FEF9FEFD2
:1026A000F1CFFC018485958597FD0BC09FB7F89409
:1026B00082E08093E9008091F2009FBF90E0019654
:1026C00008959FB7F89482E08093E9008091F2002A
:1026D0009FBF90E0089520914301E0914101F09166
:1026E0004201CF010296909342018093410122233F
:1026F00019F0859194910895808191810895CF92E8
:10270000DF92EF92FF92CF93DF930E946B138115BC
:1027100020E8920791F4809171008D7F8093710081
:10272000109291004698479810924001DF91CF9106
:10273000FF90EF90DF90CF90089521E0209340012B
:10274000813020E8920751F480913E0190913F0141
:1027500090934201809341010E946B1397FD05C045
:1027600020913D01222309F454C020913C01211104
:1027700050C021E020934401EC01DF77209709F05D
:102780004BC081E08093450146983FE9C32E3FE06E
:10279000D32EE12CF12CCAEFD0E0E0912207F0918A
:1027A00023070995811103C081E080934501809141
:1027B0004401882329F080914501882309F43FC012
:1027C00047980E946B130097F1F19C01DE010E9473
:1027D0001624DC01CB0129E0B595A795979587953F
:1027E0002A95D1F7109290002AE020939100D09280
:1027F0009900C09298008093460190934701A0935E
:102800004801B0934901809171008260809371000A
:102810008DCF10924401B0CF9E0150E040E060E4C3
:1028200072E48FE090E00E94D52369017A0181E093
:10283000C81AD108E108F10810924501AECF4699B7
:10284000BFCF479ABECF8FEF9FEFDC01CBCF9C016C
:10285000E1E7F0E090819D7F908381E080934301E8
:10286000309342012093410130933F0120933E0178
:102870000C947F132D9A0895BC0190E080E00C9495
:1028800073118FB18095807F669B88601C9B8460EC
:102890000895AF92BF92CF92DF92EF92FF920F9383
:1028A0001F93CF93DF936D3079F0C0915201D09197
:1028B00053016A30B1F410925501109254012896D8
:1028C000D0935301C093520181E090E0DF91CF910A
:1028D0001F910F91FF90EF90DF90CF90BF90AF903E
:1028E0000895409154015091550185E0689FF00191
:1028F0001124E859F14F9A01C12C80E1E82EA5E09E
:1029000070E0CA1621F0CF0101967491FC0110E02D
:1029100000E0B72FB170DB2E20383105D0F4CE01A6
:10292000800F911F80349105A0F461E081FD64E087
:1029300080FD660F82FD6295887FE89ED00111249C
:10294000A20FF62EAC53BD4F8C91DD20A9F0862B43
:102950008C9376950F5F1F4F08301105D1F6C39405
:102960002F5F3F4F86E0C812CACF4A5F5F4F509338
:10297000550140935401A8CFF0948F21E9CFCF9314
:10298000C82F0E944114982F9C2381E09C1380E063
:10299000CF91089580E00C94E50F8AE59EE00C94B9
:1029A0002714BC0184EC96E00C94E11220915801AC
:1029B0009091570130E8939FA0011124E0915A01B2
:1029C000F0915B01E40FF51FE20FF11D8083809110
:1029D0005901882389F09F5F983018F4909357012C
:1029E0000895109257012F5F27FD03C020935801CF
:1029F00008951092580108952F5F27FFF7CF109286
:102A000058019F5F983050F3109257010895089530
:102A100090E080E00895FB0101900020E9F73197F4
:102A2000AF01461B570B0C944A128F929F92AF92A4
:102A3000BF92EF92FF920F931F93CF93DF93CDB787
:102A4000DEB7A1970FB6F894DEBF0FBECDBF7C01F5
:102A5000FA01CB0119A2223008F42AE08E010F5DA1
:102A60001F4F822E912CB12CA12CBF01A5019401E6
:102A70000E94F423F901CA016A300CF5605DD801A7
:102A80006E938D01232B242B252B79F790E080E08A
:102A9000109721F0BD01C7010E940B15A1960FB63A
:102AA000F894DEBF0FBECDBFDF91CF911F910F9184
:102AB000FF90EF90BF90AF909F908F900895695CCA
:102AC000DECF61E371E00C940B150F931F93CF934E
:102AD000DF93EC010E94E1128C01CE010E9461158E
:102AE000800F911FDF91CF911F910F910895BC012D
:102AF00084EC96E00C9465151F93CF93DF9300D080
:102B000000D01F92CDB7DEB7182F45E050E069E640
:102B10007FE1CE0101960E94B623812F90E024E050
:102B2000959587952A95E1F78A30C0F4805D8B836F
:102B3000812F8F708A30A0F4805D8C83BE016F5F1F
:102B40007F4F84EC96E00E940B150F900F900F9032
:102B50000F900F90DF91CF911F910895895CE7CF7F
:102B6000895CEBCF482F50E070E060E02AE084EC15
:102B700096E00C941515CF93DF930E94B215EC01EB
:102B800084EC96E00E9461158C0F9D1FDF91CF9120
:102B90000895CF92DF92EF92FF920F931F93CF93FE
:102BA000DF936B01072E000CEE08FF0877FF1BC0B8
:102BB000EC016DE20E94CB128C0144275527BA012B
:102BC0004C195D096E097F092AE0CE010E94151596
:102BD000800F911FDF91CF911F910F91FF90EF9088
:102BE000DF90CF9008952AE0B701A601DF91CF9141
:102BF0001F910F91FF90EF90DF90CF900C941515DF
:102C0000CF92DF92EF92FF920F931F93CF93DF93B8
:102C100080E8E82E81E0F82ED0E0C0E0670110E007
:102C200000E0F60191916F0120917401022E000CD9
:102C3000330B0217130709F0C4C020917501022E4F
:102C4000000C330BC217D30709F0BBC0809176018B
:102C50006FE97AE1813051F062EA7AE1813030F057
:102C60006CE97AE1823011F069E97AE184EC96E06E
:102C70000E94E1120F5F1F4F0031110591F684ECA5
:102C800096E00E9461152196F0E1EF0EF11CC03133
:102C9000D10521F684EC96E00E94611565E67AE1A3
:102CA00084EC96E00E94E11260917401062E000C03
:102CB000770B84EC96E00E94C91568E57AE184EC14
:102CC00096E00E94E11260917501062E000C770BD0
:102CD00084EC96E00E94C9156FE47AE184EC96E0FA
:102CE0000E94E112809176010E94B21567E47AE1B8
:102CF00084EC96E00E94E11260917701062E000CB0
:102D0000770B84EC96E00E94C9156EE37AE184ECBF
:102D100096E00E94E11260917801062E000C770B7C
:102D200084EC96E00E94C91562E37AE184EC96E0B7
:102D30000E94E11260917901062E000C770B84EC61
:102D400096E00E94C91567E27AE184EC96E00E9461
:102D5000E11280917A010E947C156DE17AE184ECA8
:102D600096E00E94E11260917A0163FB662760F9A8
:102D700070E084EC96E00E94C91560E17AE184EC91
:102D800096E00E94E11260917A01617070E084EC3B
:102D900096E00E94C9156AEF79E184EC96E00E9402
:102DA000E11280917C010E94B21584EC96E0DF91E3
:102DB000CF911F910F91FF90EF90DF90CF900C94E7
:102DC0006115892F8C7F66E97AE1883509F44ECF49
:102DD00063E97AE1883709F449CF60E97AE1883319
:102DE00009F444CF6DE87AE194FD40CF6AE87AE1D6
:102DF0009C3409F43BCF67E87AE19C3609F436CF7E
:102E000064E87AE19C3209F431CF61E87AE19C38D8
:102E100009F42CCF6EE77AE1883E09F427CF6BE7FF
:102E20007AE1883C09F422CF68E77AE1803809F436
:102E30001DCF65E77AE1803A09F418CF62E77AE1BD
:102E400015CF0F931F93CF93DF93EC010E94C91509
:102E50008C01CE010E946115800F911FDF91CF91EF
:102E60001F910F910895BC0184EC96E00C942117FA
:102E7000CF93DF93EC0163E47EE084EC96E00E9464
:102E8000E11268816F7070E084EC96E00E94C915D1
:102E900060E47EE084EC96E00E94E1126881629535
:102EA0006F7070E084EC96E00E94C9156EE37EE0DE
:102EB00084EC96E00E94651568E27EE084EC96E082
:102EC0000E94E11289810E947C1562E17EE084EC1F
:102ED00096E00E94E1126A81062E000C770B84ECCA
:102EE00096E00E9421176CEF7DE084EC96E00E9452
:102EF000E1126B81062E000C770B84EC96E00E94A9
:102F0000211766EE7DE084EC96E00E94E1128C8150
:102F100064E371E0882311F067E371E084EC96E0EC
:102F20000E940B1584EC96E00E94611560ED7DE037
:102F300084EC96E00E94E1128D810E94BB1584EC26
:102F400096E0DF91CF910C946115BC0184EC96E082
:102F50000C94C9152F923F924F925F926F927F927D
:102F60008F929F92AF92BF92CF92DF92EF92FF9299
:102F70000F931F93CF93DF93CDB7DEB76D970FB647
:102F8000F894DEBF0FBECDBF70E2272E33243394FA
:102F9000D12CC12CC88EACEBB2E0E8E01D92EA95D2
:102FA000E9F780917401E09075010E2C000CFF0888
:102FB000E80EF11C87FDFA9480917601E80EF11C71
:102FC000F1E0EF22FF2464E4A62E6CE1B62E49E086
:102FD00050E0B501CE010A960E94B6238A859B85F2
:102FE000892B09F4E7C08C85082E000C990BC816B4
:102FF000D9060CF4DBC08D85082E000C990B8C15BE
:103000009D050CF4D3C00091760128894F8560910D
:103010007501809174010E94C210DC018C9184FFC3
:10302000C5C02E85822F022E000C990B54E0959579
:1030300087955A95E1F72F702F5F281B3C85488DA7
:10304000431BE989E114F104A9F0E0953A89E30F03
:10305000E41B3E2F2303F00111244A855B85E40F16
:10306000F51FDC01A454BD4F215030F084918D93A5
:103070003196FACFE40FEDCF1F859101EF2821F4AF
:1030800020E231E022193309ACEBB2E0BF8BAE8B0A
:1030900090E080E0588D5170215E344E4C91EF8568
:1030A000EE0FE50F60917F01E60FFF27FF1FEB5545
:1030B000F54EE491E423853030F0E11104C0F901CC
:1030C000E80FF91FE491ED9301968830910531F7EF
:1030D0001D8A1C8AE12FF0E0FD8FEC8F112309F48B
:1030E000BDC04C8C5D8C2C893D89421A530AC201AB
:1030F000880F991F840D951DDC01AB54B54EBB8F15
:10310000AA8F41ECA42E4AE1B42E49E050E0B5016B
:10311000CE0101960E94B623EA80F12C042C02C055
:10312000F594E7940A94E2F78A8C9B8CBFEFBB8BF3
:1031300037017724F401F491F98F8F2FFF0F990B4A
:103140009C0126193709C216D3060CF47DC0860DE2
:10315000971DC816D9060CF077C0009176012B890F
:10316000412F60917501809174010E94C210DC01B1
:103170008C91282F2C7F9981291366C081FF1CC058
:1031800090917601982790FD17C0B9E0AB0EB11C65
:10319000E4E2FBE1EA15FB0509F0B7CF11502C89F9
:1031A0003D892F5F3F4F3D8B2C8B98CF89E0A80E38
:1031B000B11C0DCF17E061CF2F85022E000C330B11
:1031C0004216530631F484FD04C0FB89FF2309F441
:1031D00045C02CEB822E22E0922E712C288DE20E1F
:1031E000398DE31A01E09E012F5F3F4F412F672D7C
:1031F0008E2D0E94F40FF82ED4018C918F218C9388
:1032000000E09E012F5F3F4F412F672D8E2D0E94C2
:10321000F40FE0917F019F85E90FFF27FF1FEB551A
:10322000F54EE491E823113029F4F09480917D016A
:10323000F822EF25D4018C91E82BED934D01739486
:10324000B8E07B12CFCFA1CFEFEF8E1A9E0AFB8999
:10325000FF5FFB8BF23009F06DCF97CFAE89BF894E
:103260009D91BF8BAE8B80917C0189270E94D614E3
:10327000E4ECF2E02E893F89E217F30779F73FEF9C
:10328000C31AD30A83E0281A310890E6C916D1047C
:1032900009F080CE8CE8C82ED12C55245A94F12CFC
:1032A000E12C312C95E0292E10E000E0A3EFA50DD4
:1032B000AB8BF601EB55F24E3F019601275E324E85
:1032C00059014E2C470132E0831A9108202FE32D3B
:1032D000E00F90917A01892F8170802B79F1F0E0D5
:1032E000E85BF14E849101110EC0AB89A53058F412
:1032F00030917601F701329DE00DF11D1124EA5D58
:10330000F14EE4918E2B40917701BDE1B515A8F106
:10331000233009F076C0242F47FF02C021E0240F9C
:103320002595022E000C330B281539050CF480E08E
:1033300090917E01892714168CF123C080E0E3CFA1
:10334000F3E1F41518F492FDF6CF64C02DE02415D6
:1033500018F491FDF0CF5EC037E0341518F496FDF7
:10336000EACF58C0A1E04A1631F395FDE4CF52C030
:10337000253018F0990F990B892314167CF023300F
:1033800068F0BBE1B51550F0F301E00FF11FE491D7
:103390008E23F501E00FF11FE4918E2B0E94D614CD
:1033A0000F5F1F4F0830110509F090CFE8E03E0E87
:1033B000FFEFEF1AFF0A539425E0C21AD1083FE14C
:1033C000531272CF0E94CA1410927D0110927E0196
:1033D0006D960FB6F894DEBF0FBECDBFDF91CF91D3
:1033E0001F910F91FF90EF90DF90CF90BF90AF9023
:1033F0009F908F907F906F905F904F903F902F9015
:103400000895243009F0B4CFE9E1E41508F098CF2D
:1034100093FD91CF80E08FCFCF93DF93EC0187EEC8
:1034200099E10E94771590917B01983010F09750A8
:10343000FCCF8B8120917901821B890F181664F4CF
:1034400090917701981B9093770182EB99E10E940C
:1034500027148FEF80937E016FEC79E184EC96E086
:103460000E94E11260917701062E000C770B84EC2C
:1034700096E00E9421170E94AA178CEB99E1DF9138
:10348000CF910C9477150C94BF230F920FB68F93A6
:103490009F93EF93FF9380915D018D5F8D3708F0CF
:1034A0008D5780935D01EEE5F1E080818E4F808342
:1034B00091819F4F918382818F4F828383818F4F30
:1034C0008383E2E6F1E080818F5F808381818F4F8B
:1034D000818382818F4F828383818F4F83838FB1DA
:1034E0008F6066991C9B88278F3681F480915C01E0
:1034F000981B963068F0E0E0F8E087E780838183EE
:1035000088E180936000F0936000FFCF90935C01AE
:10351000FF91EF919F918F910FBE0F9018951F9281
:103520000F920FB60F9211248F939F938091E10019
:103530009091E100937F9093E10083FF0FC0109280
:10354000E90091E09093EB001092EC0092E39093ED
:10355000ED001092730198E09093F00082FF22C07A
:1035600093E09093E9009091F200992319F09AE387
:103570009093E80090914F01992341F090914F0171
:10358000915090934F01911101C05D9A90917201F9
:10359000992341F090917201915090937201911191
:1035A00001C0289A84FF18C08091E2008E7E81605D
:1035B0008093E2008091E1008F7E8093E100809112
:1035C00050018E7E8061809350019F918F910F906A
:1035D0000FBE0F901F90189580FFF7CF8091E200EB
:1035E0008E7E80618093E2008091E1008E7E8093E8
:1035F000E100809150018E7E8160E5CF1F920F9295
:103600000FB60F921124CF92DF92EF92FF920F9399
:103610001F932F933F934F935F936F937F938F935A
:103620009F93AF93BF93EF93FF93CF93DF93CDB768
:10363000DEB76C97DEBFCDBF1092E9008091E80045
:1036400083FF25C068E0CE0145960E94101282EFEC
:103650008093E8008D8987FF39C09091E80090FF42
:10366000FCCF982F907609F034C19E894F89588DF0
:103670002F89F88C911131C0803861F5809151010A
:103680008093F1001092F1008EEF8093E8006C9629
:103690000FB6F894DEBF0FBECDBFDF91CF91FF9183
:1036A000EF91BF91AF919F918F917F916F915F91BA
:1036B0004F913F912F911F910F91FF90EF90DF90CD
:1036C000CF900F900FBE0F901F9018959EEF909384
:1036D000E800C7CF1092F100D5CF913059F4811195
:1036E000D3CF4130510581F6809151018D7F809378
:1036F0005101CACF933049F48111C6CF41305105F1
:1037000019F6809151018260F2CF953041F4809199
:10371000E80080FFFCCF20682093E300B5CF96300F
:1037200009F0A9C00B8D1C8D22E01092E9001092C7
:103730004D0110924C01F2122EC010924B011092CA
:103740004A010E94DF111F8299E09983FA8291E079
:103750009E8390EA98879AEF998720914C01309147
:103760004D01275F3F4F3C832B838D831092E900EF
:1037700010924D0110924C0110934B0100934A019D
:1037800049E050E0BE016F5F7F4F80E00E94B911B9
:103790000E94DF1179CF10934B0100934A010E94E0
:1037A0005F11DC0112960D911C910115110509F4B0
:1037B00051C1D801ED91FC910480F581E02DBE014D
:1037C0006B5E7F4FC8010995009709F03EC1F80173
:1037D00000851185EACFF3E0FF120EC08F898823A0
:1037E00009F440C0823061F440E867E08CEC93E17A
:1037F0000E94911D811148CF81E28093EB0047CF59
:10380000813029F440E86BE080EC93E1F1CF833024
:1038100099F70E945F11DC011296ED90FC908E01E9
:103820000F5F1F4F6801E114F10479F0D701ED91AA
:10383000FC910680F781E02DB801C7010995080FBA
:10384000111DF701E084F184EECFD8011C92F6013E
:1038500001900020E9F73197BF016C197D0940E024
:10386000C601C6CF6AEA73E1FB01449150E080E8EB
:103870000E94B91109CF973009F4BECF983021F4D6
:1038800081E08093F10000CF993009F0FDCE837084
:1038900009F0B2CFEDE0F1E081E031E096E3219173
:1038A000222371F08093E9003093EB00DF01119740
:1038B0002C912093EC009093ED008F5F873079F787
:1038C0008EE78093EA001092EA008F89809373015B
:1038D000DBCE8B8D9C8D1092E90010924D011092E1
:1038E0004C0190934B0180934A01898D811192C0C4
:1038F0008E899D89913A49F4813209F07DCF47E064
:1039000050E064E071E080E0B3CF913209F074CF11
:10391000833269F48F89988DB0E0A0E08093000134
:1039200090930101A0930201B0930301ADCE8032C8
:1039300069F48091E80082FFFCCF67E084E091E0C9
:103940000E9410128BEF8093E8009ECE823209F025
:103950009BCE8F8980930B01EEEFFFE785919491C9
:103960008B3F9C4D51F1E0E0F8E080910401909193
:103970000501A0910601B0910701803B9440A1058B
:10398000B105F1F480910B0180FD1AC0EE3F8AE091
:10399000F80789F587E797E7918380838091600036
:1039A00080934E0188E19BE00FB6F894A895809330
:1039B00060000FBE9093600067CEEEEFFAE0D5CFC7
:1039C000808191818737974709F05ECEA8958091D5
:1039D000600088618093600080914E018093600058
:1039E000EE3F2AE0F20789F08091FE0A9091FF0AEB
:1039F0009183808349CE808191818737980751F2E6
:103A00009093FF0A8093FE0AC5CF1092FF0A10928E
:103A1000FE0A3ACE0E945F11DC0112960D911C91B4
:103A20000115110509F4E8CED801ED91FC91019042
:103A3000F081E02DBE016B5E7F4FC80109958111B9
:103A400023CEF80100851185EBCF181619060CF46A
:103A50001BCED2CEF1E0FF12BECE6EEA73E104CFF0
:103A60001F920F920FB60F9211242F933F934F93F3
:103A70005F936F937F938F939F93AF93BF93EF93D6
:103A8000FF938091460190914701A0914801B09128
:103A90004901892B8A2B8B2B09F440C08091450169
:103AA00081110BC088B190E4892788B980914401C5
:103AB000882319F088B1805888B980914601909187
:103AC0004701A0914801B0914901181619061A063C
:103AD0001B069CF48091460190914701A0914801FA
:103AE000B09149010197A109B109809346019093D2
:103AF0004701A0934801B0934901FF91EF91BF9115
:103B0000AF919F918F917F916F915F914F913F9175
:103B10002F910F900FBE0F901F9018950E947F134A
:103B2000ECCFEF92FF920F931F93CF93DF93F82E7A
:103B3000192FE62E042F81E0860F880F0E948B112B
:103B400083E00E948B11CF2DD12FEC0EFD2EF11CA6
:103B5000CE15DF05B9F007FF13C0FE0184910E9466
:103B60008B11182F80E00E948B11812321968111E7
:103B7000EFCFDF91CF911F910F91FF90EF900895BC
:103B80008881EDCF81E0F5CFE4ECF6E0138212827C
:103B900088EE93E0A0E0B0E084839583A683B783AA
:103BA00087E191E0918380838FEF9FEF95878487F2
:103BB000E4E2F7E01382128289E291E0918380834C
:103BC00082EE9FE0909323078093220780E090E8A5
:103BD000909321078093200746983E9A47983F9AF2
:103BE0000895CDB7DEB72697DEBFCDBF789483E0CA
:103BF00084BD83E085BD81E080936E00E1E8F0E064
:103C000083E08083E0E881E08083E1E983E08083F2
:103C1000E0E981E08083E1EC87E08083E3EC81E010
:103C20008083E0EC82E08083E2EC81E08083EAE75D
:103C300087E0808380688083109273011092510125
:103C4000109250018091D70081608093D70080EA64
:103C50008093D80089B5806189BD89B5826089BDAE
:103C600009B400FEFDCF0E9432118091D8008F7CF4
:103C700080618093D8008091E000807F8093E00095
:103C80008091E1008E7E8093E1008DE08093E200E0
:103C9000559A209A81EC80937C0085B1806F85B91C
:103CA00084B1877E84B984B1876E84B95E9A5F9847
:103CB0008AB1806D8AB9769A6E9881B3806F81BB24
:103CC000899880B38D7080BB80E58CBD81E08DBD0F
:103CD00085E090E00E943C145F9A85E090E00E94AD
:103CE0003C145E985C98E4E8F4E184E994E1249162
:103CF0002EBD00000DB407FEFDCF31968E179F0735
:103D0000B1F75C9A81E880936400809165008160DE
:103D1000809365000E94CA1480E80E94BF14882323
:103D200081F05C9885EA8EBD00000DB407FEFDCFE2
:103D30005C9A2E982F982D9881E083BF889513BEAA
:103D4000FCCF84E00E94BF14882309F448C02D985A
:103D500084E80E94BF148823E1F00E943A1488ECA2
:103D600090E00E943C142F9882E090E00E94BF23D4
:103D70008F3F29F06FEF82E090E00E94C72384EF2D
:103D800091E00E943C142F9A84E80E94BF14811194
:103D9000FBCF84E10E94BF148823E1F00E943A1413
:103DA00088EC90E00E943C142E9882E090E00E9403
:103DB000BF23882329F060E082E090E00E94C723BF
:103DC00084EF91E00E943C142E9A84E10E94BF147B
:103DD0008111FBCF88EC90E00E943C14B2CF0E948E
:103DE0003A1482E090E00E94431A882309F4BFC08D
:103DF0003E9A3F9A81E08093560181E090E00E94D4
:103E0000431A382F3470732E81FF11C031112E9850
:103E100001EF1FEFE8E0EE2EF12C80E40E94BF14CA
:103E2000882309F4A9C02E9A2F9A0E943A1482E39B
:103E300090E00E943C140E9441148111F8CF8FEF52
:103E40009FEF9093D1068093D00684EC92E09093FC
:103E50005B0180935A0181E08093590110925801CF
:103E60001092570120E5A22EBB24B39477247394BB
:103E700033243A9483E0682E9AE0592EA4E7B1E007
:103E8000F5011D923197E9F77092740170927501F6
:103E9000709276018CE0809377016092780140E027
:103EA00051E062EB78E180E891E00E94B6234CE3B8
:103EB00050E066E778E180E892E00E94B6238BE567
:103EC00098E10E94D11486E090E00E94331781E4CB
:103ED00098E10E94D1148CE390E00E9433178CE2A9
:103EE00098E10E94D11480E591E00E94331700E828
:103EF00012E0D80111968C911197EC91F0E0EC58FA
:103F0000FE4F848789E198E10E94D114F8018181F4
:103F10000E947C158BE098E10E94D114D8018C910D
:103F200090E00E9433170A5F1F4FB2E00C3B1B0763
:103F300001F70E94001650927F01809177011816B8
:103F40000CF0F5C380917A0185FD5092780186FDD1
:103F5000609279010E94AA170E940016D0907F01FA
:103F6000DD2009F4C8C0DA94D0927F01E6CF109228
:103F700056013E983F9841CF772029F00430110533
:103F800011F42E9A2F9881E00E94E50F980117FFF7
:103F900004C022273327201B310B27703327C80189
:103FA00017FD079673E0959587957A95E1F717FFCA
:103FB00005C00197A701421B530B9A01AC0156950E
:103FC000542F4427579547954C535D4FB0E0A0E0E0
:103FD0002701421A530A8E3F6FEF960709F43BC040
:103FE0005A01E4E9AE0EB11C6A0170E060E0FD0127
:103FF000EC52FC4E4F018F3F980779F0F401E60F29
:10400000F71FE491F0E01F01022E01C0220C0A9478
:10401000EAF7F60164882628248A2115310581F003
:10402000F401E60FF71FE491F0E01F01042C02C039
:10403000359427940A94E2F7F501608026282082BF
:104040006F5F7F4FFFEFAF1ABF0AEFEFCE1ADE0AA6
:104050006835710581F60196A85ABF4F40585F4FE9
:10406000A03BB10509F0B7CF0E94CA148FE090E0E1
:104070000E943C140F5F1F4F0931110509F0CDCE8E
:10408000772011F02F9A2D9880E991E00E943C143E
:104090000E943A1481E090E00E94431A80FFC7CE4C
:1040A0008AE090E00E94431A9FEF980F9E3F08F02D
:1040B000BECE22E330E0309355012093540128E333
:1040C00030E030935301209352010BE010E0682F51
:1040D00084E297E00E944914C8010E94431A0F5FCE
:1040E0001F4F0131110599F70E94CA1488EE93E021
:1040F0000E943C149CCE0091760120E041E060914A
:104100007501809174010E94C2107C0180917C0134
:1041100090917D01892B90917E01892B10927C01D9
:10412000882369F090917A0194FFFAC220917B0173
:10413000293008F4E8C22850FBCF1111F3CF0091C9
:104140007C0180917B018F5F80937B0180E20E94E4
:10415000BF14182F81112CC011E0011101C010E013
:1041600080E40E94BF14082F882349F080917601D3
:104170008F5F8370809376010E94CD14102F80E8AA
:104180000E94BF14982E882309F1F701808183FDD6
:104190004DC00E94CD140E94CD14809176018130D3
:1041A000D9F178F08230F1F180917401815037C0FB
:1041B0008091760181508370809376010E94CD14A6
:1041C000CFCF8091750181508093750180E10E946D
:1041D000BF14C82E882309F4C2C00091760120E0E4
:1041E0004FEF60917501809174010E94C210DC0153
:1041F0008C9183FDB0C00E94CD140E94CD1480919B
:104200007601813009F49DC0B8F0823009F49FC076
:10421000809174018F5F98C0809174018F5F80934B
:104220007401D4CF809175018F5FCECF84EB97E17D
:104230000E942714912CCACF809175018F5F8093C3
:10424000750165E771E084E791E00E94AB10CC2036
:1042500009F48EC087EF97E10E94D1148091740118
:10426000082E000C990B0E94A51784EF97E10E947D
:10427000D11480917501082E000C990B0E94A5178E
:1042800082EF97E10E94771502EE17E144E050E0DB
:10429000B801CE0101960E94B6232A818091750152
:1042A000B0E18B02C001112430917401830F911D84
:1042B00037FD9A9528171906D9F562EA77E184EC5B
:1042C00096E00E94E112898167E977E1813011F07F
:1042D0006FE877E184EC96E00E9465156CE777E182
:1042E00084EC96E00E94E1128B810E94B21569E78E
:1042F00077E184EC96E00E94E1128C810E94B21575
:1043000067E777E184EC96E00E94651584EC96E01F
:104310000E94611589819B81813019F59093740108
:104320008C818093750180917A0182FD30927C01AD
:104330000C5F1F4FE2EFF7E1E017F10709F0A6CF9E
:10434000F1CE809174018150809374017ACF809175
:104350007501815074CF84EB97E10E942714C92C1A
:1043600070CF80917601890F837080937601DBCFC7
:1043700088E00E94BF14882309F4DFCED7014C9057
:104380000E94001669ED77E184EC96E00E94E1124C
:10439000842D0E947C1584EC96E00E94611542FEFB
:1043A000BBC0870100581140202E8DE597E10E9487
:1043B000D114802F8F70C82ED12CC6010E94A51752
:1043C0008AE597E10E94D11402950F70802E912CFE
:1043D000C4010E94A51786E597E10E94771500E8C1
:1043E00012E0F8018081281223C085E497E10E9441
:1043F0007715C8010E943817D80114968C9188232C
:1044000019F0C8010E940C1A8091770118160CF05F
:1044100051C083E097E10E94771588EE96E101157F
:104420001105B9F180917B018830E8F08750FCCF0D
:104430000A5F1F4FF2E00C3B1F0798F288E197E1FB
:104440000E94D114C6010E94A51785E197E10E9440
:10445000D114C4010E94A51783E197E10E9477154A
:1044600010E000E0C9CF2091780190E0820F911D0B
:1044700027FD9A95F8019281981B928382EB99E12E
:104480000E94271430927D01C8010E94381788EDE0
:1044900096E10E94771588E00E94BF14882331F0CE
:1044A00080917B018F5F80937B01F5CF0E94AA17DB
:1044B0000E94AA17D80112968C9112971816ECF444
:1044C00014968C91811109C064EF71E080E090E056
:1044D0000E947311C8010E940C1A0E9400166EEB14
:1044E00077E184EC96E00E94E112842D0E947C1515
:1044F00084EC96E00E94611515CE87EC97E10E944E
:104500007715F701108280917A01D80115969C9158
:10451000892B80937A01E1CF0AE516E1B42DBC7FA7
:10452000CB2E46E050E0B801CE0101960E94B623A2
:10453000898190E080589E4FE816F90609F0DCC0AA
:104540008A81C812D9C061E476E184EC96E00E94C9
:10455000E1128D2D0E94B2156FE376E184EC96E0B6
:104560000E9465156EE276E184EC96E00E94651586
:1045700066E176E184EC96E00E94E11289810E9476
:10458000BB156EEF75E184EC96E00E94E1128A8122
:104590000E947C1584EC96E00E94611566EE75E140
:1045A00084EC96E00E94E1128B810E947C1584ECE1
:1045B00096E00E9461156EEC75E184EC96E00E9435
:1045C000E1128C810E947C1584EC96E00E946115BA
:1045D00066EB75E184EC96E00E94E1128D810E9409
:1045E000BB156EE975E184EC96E00E94E1128E81C4
:1045F0000E947C1584EC96E00E94611584EC96E0A4
:104600000E946115E8E3CE1609F465C0F0E8CF1208
:104610006EC082E995E10E9477158C8190917A01B4
:10462000982B90937A01823061F4E0E8F1E0919167
:10463000903119F4DF0111971C9232E0E038F30752
:10464000B0F380FF04C08FE795E10E9477158C815D
:1046500081FF04C08FE595E10E9477158C8182FF70
:1046600004C080E495E10E9477158C8183FF04C02B
:1046700081E395E10E9477158C8184FF04C08FE16E
:1046800095E10E9477158C8185FF04C082E095E159
:104690000E9477158C8186FF04C089EE94E10E9408
:1046A00077158C8187FF04C08CEC94E10E9477150C
:1046B0008A81481A8B81482AF7014082ED81F0E017
:1046C000EC58FE4F8E81848786EC94E10E9427147B
:1046D0000E94001627CD80917A0183FFF5CFD70184
:1046E0001C9280917A01877F80937A01E1CF80913B
:1046F0007A019C81892BF8CFD3940A5F1F4FF5E193
:10470000DF120FCF0FCD80917701885F820F8093EA
:104710007701905190937A0184E994E10E942714E3
:1047200068EC70E080E090E00E94731106CC80910C
:104730007F01803130F48F5F80937F010E94AA1740
:10474000F6CFA4E7B1E0F5011D923197E9F70E9499
:10475000AA1788E00E94BF148823D9F340E050E0F4
:10476000452B09F48BCB0E94000084CBFB01DC01BC
:1047700002C005900D9241505040D8F70895F99924
:10478000FECF92BD81BDF89A992780B50895262F56
:10479000F999FECF1FBA92BD81BD20BD0FB6F89426
:1047A000FA9AF99A0FBE01960895052E97FB1EF40A
:1047B00000940E94EC2357FD07D00E94F42307FCCD
:1047C00003D04EF40C94EC235095409530952195F0
:1047D0003F4F4F4F5F4F089590958095709561952D
:1047E0007F4F8F4F9F4F0895A1E21A2EAA1BBB1B2C
:1047F000FD010DC0AA1FBB1FEE1FFF1FA217B307AD
:10480000E407F50720F0A21BB30BE40BF50B661FC2
:10481000771F881F991F1A9469F760957095809586
:1048200090959B01AC01BD01CF010895A29FB001FD
:10483000B39FC001A39F700D811D1124911DB29FD4
:10484000700D811D1124911D0895EE0FFF1F05901D
:0A485000F491E02D0994F894FFCFD5
:10485A00FFFFFFFF00E100000000000000C18081AF
:10486A0000000000000000CB124A120B1300135183
:10487A00130F132D130000000049141D1208150709
:0C488A00150D0A006E6F007965730000C8
:00000001FF
