:10000000F5C904CA03CA02CA01CA00CAFFC9FEC9A7
:10001000FDC9FCC9FBC9FAC9F9C9F8C9F7C900008B
:10002000000C18067E43B043F061F031B80EFC0FAF
:10003000EE1FC033C04DC05F807F005C0008280405
:10004000840A00000000FFE2E7E1813000080118A7
:10005000070C078003C001E000C011001F001F0053
:100060003F007F00C3A301E001E07BF0FFFF000041
:1000700000000000600C00103410306A3824E82FB3
:10008000FC0F2024E82F306A38103410600C000078
:100090000000FFFFFF9FF3FF0FC1EF8781C78300C1
:1000A000800100800100800100808300808781C77B
:1000B0000FC1EF9FF3FF000000007077005055FC68
:1000C0007577DC7177DC7577DC7177DC7577DC71DF
:1000D00077DC7577DCF177DC3576DC3176DCF5774B
:1000E000DC7177DC7577DC7177DC7577DC7177FC38
:1000F0007577005055007077000000000000FF0782
:1001000000FF0300010000010000010000010000E9
:1001100001000001000001000001000001000001D9
:1001200000000100000100000100000100000100CA
:1001300000010000010000010000010000FF0300B9
:10014000FF0700FFFFFF0000000077778057554052
:100150007777407777407777407777407777407742
:1001600077408777402776406776402776408777C5
:100170004077774077774077774077774077774059
:100180007777805755007777000000000000FF0068
:10019000007F00003F00001F00001F00001F000044
:1001A0001F00001F00001F00001F00001F00001F95
:1001B00000001F00001F00001F00001F00001F00A4
:1001C000001F00001F00001F00003F00007F000014
:1001D000FF0000FFFFFF00003C3C3C3C3C3C0000BB
:1001E000000000000000000000000000000000000F
:1001F00000000000000000000000000000003C3C87
:100200003C3C3C3C000000000000000000000000FE
:1002100000000000000000000000000000000000DE
:10022000000000000000000000000000C5B87B379F
:1002300046078000000000000840D7FAFFBFD60D37
:10024000A0C7F8FF3FC60DA0EFFDFF7FEF0D100226
:10025000800004400CC0FFFFFFFFFF0DD0FFFFFF39
:10026000FFFF01E8FFFFFFFFFF0D00100008000186
:100270000CE8FFFFFFFFFF0DECFFFFFFFFFF0DE6A8
:10028000FFFFFFFFFF0D0C011000001000EAFFFF51
:10029000FFFFFF0DECFFFFFFFFFF0DE8FFFFFFFF7C
:1002A000FF0D0080000F00010EE8FFFFF9FFFF0DBA
:1002B000D0FFFFF9FFFF01C0FFFFF9FFFF0D1000A6
:1002C000049900080CA0FFFFE1FFFF0DA0FFFFE174
:1002D000FFFF0D40FFFFFFFFFF0D8000000000004B
:1002E0000800F7DE7B7777070000018080000000C0
:1002F000000000000000FFFFFFFFFFFFFFFFC7F847
:10030000FF3FC6FFFF0400000082E07F0000000006
:1003100000E03F0000000000E01F0000000000E0DF
:100320000F0000000000E00F0000000000E00700E8
:1003300000000000E0070000000000E007000000EF
:100340000000E0030000000000E0030000000000E7
:10035000E0030000000000E0010000000000E000F9
:100360000000000000E0010000000000E0000000CC
:10037000000000E0010000000000E00300000000B9
:1003800000E0030000000000E0030000000000E0C7
:10039000070000000000E0070000000000E0070088
:1003A00000000000E00F0000000000E00F0000006F
:1003B0000000E01F0000000000E03F00000000001F
:1003C000E07F0000000000E0FF0001808000E0FF0F
:1003D000FFFFFFFFFFFF0000000000000000000023
:1003E0000000FEFFFFFFFF3FFEFFFFFFFF3FC000DB
:1003F00000000003C00000000003C0000000000374
:10040000C00000000003FEFFFFFFFF3FFEFFFFFFF5
:10041000FF3FC00000000003C00000000003C00058
:1004200000000003C00000000003FEFFFFFFFF3FCD
:10043000FEFFFFFFFF3FC00000000003C000000000
:100440000003C00000000003C00000000003FEFF26
:10045000FFFFFF3FFEFFFFFFFF3FC0000000000364
:10046000C00000000003C00000000003C000000046
:100470000003FEFFFFFFFF3FFEFFFFFFFF3FFFFF09
:10048000FFFFFFFF0100000000C00000000000802F
:100490000000000000800100000000C01FFEFFFF00
:1004A0007FF81FFEFFFF7FF80100000000C0000082
:1004B000000000800000000000803FFFFFFFFFFC05
:1004C0003FFFFFFFFFFC3FFFFFFFFFFC3FFFFFFF82
:1004D000FFFC0000000000800000000000803FFFE3
:1004E000FFFFFFFC3FFFFFFFFFFC3FFFFFFFFFFCA5
:1004F0003FFFFFFFFFFC0000000000800000000045
:1005000000800100000000C01FFEFFFF7FF81FFEFB
:10051000FFFF7FF80100000000C000000000008025
:10052000000000000080380000C0450700440000C3
:10053000300018008203000800200039040004FE87
:10054000400029180082FF8300396000E1EF0701B5
:10055000828381E0E70702440C46E8F72F04383035
:1005600048E4F36F0400C030D4FB47080000339622
:10057000FBD30838001C36FFD90844C01373E1DCF4
:1005800011823F1CF340DE11390010F3C0DF112946
:100590008011FBC0DF11397E1E9B40DE1182011EDF
:1005A000CBE1D811448011F3FFD311386030F2ED64
:1005B000DF0870182CF6EDDF08880423E4CD4F081F
:1005C00004C340ECDC6F04723040689E2F04520874
:1005D0008060BF0702720400E1FF03010403008290
:1005E000FF830088000004FE400070000008002027
:1005F0000000000030001800000000C045070000A7
:10060000000000000000C7FFFF3F00F8FF83FFFF6E
:100610000F00E0FF01FCFF0700C0FF00F8FF030030
:1006200080FF00E0FF010000FF0080FF000000FEEF
:1006300001007E000000FC830338000000F8C70FB3
:1006400030000000F8FF3F00000000F0FFFF000056
:100650000000F0C7FF03000000F0833F0C00000023
:10066000E0010000000000E0000000000000E000E9
:100670000000000000E0008001000000E001FE0139
:10068000000000E0837F00000000E0C71F000000C2
:1006900000F08F0710000000F007031C000000F0BE
:1006A00003003F000000F801C03F000000F801F027
:1006B0007F000000FC01F8FF000000FE03FCFF01CA
:1006C0000000FF07FFFF030080FF8FFFFF0700C050
:1006D000FFFFFFFF0F00E0FFFFFFFF3F00F8FFFFFE
:1006E000FFFFFFFFFFFF367740766C706E367407B2
:1006F0007C3F2C3F601F6C0AD81A58181802F00A69
:10070000C00EF00ED006E008B00BD81AD818601A48
:1007100018065C177C3D603F6C3E6E786E760E0668
:100720006E67E400DC368016D008B00AB00AC00A52
:100730001816EC3468366E4EE40DE262EEEC0EEE06
:100740006EEEEC0EE060E6EEEEEE0EEE4E66E60EBF
:10075000E0E0E6ECEEEE0ECE6E0EEC6CE0E0EEEEDF
:100760008EEEE07BDF03807FFF02407AEF03C07BE9
:10077000EF01C03B0B00C047EF018077EF01807FA6
:10078000EF018071FE010074F0010077F600007F38
:10079000FE00007DE500007F0F00007F7F0000600D
:1007A000F7000076DF000077FF00005FF200007DB9
:1007B000F4008077FE018047EB008037EB0080700B
:1007C0000F00007BEF01807BFE01C07BF102C05B6C
:1007D000FF02C07FFE03E07BCE03FC007E00F8F941
:1007E0003E1F00FCBE0FF0DD9E0F60FBD606C0333F
:1007F000DE03C0C31C0080F7E80100D0E6000077EC
:10080000EE00000E6E0000AE4E0000F1EE0000960D
:10081000E00080F75E0080F89E02C0F3DE03E00B8C
:10082000A607E0FCB00300FD2E0CF8ED7F1FFCFED8
:100830007E37FE3C7F00FE7C7F7EBE7C7F7BFE7E23
:100840003E777E7E007F7C7F1E7F007F7F7F7C7E69
:100850007F7F7C7C7F7FFE307F3CFE087F00F63C04
:10086000773EFE7E7F7EFE7E7E7FDE7E3E7B7E7ED0
:10087000007F7C7E3C7F006E7F3F787E7F3FFE7EE8
:100880007F7FFE3E7F7EFE0C7700FE307F3CFE7C4D
:100890007F7FFE7E7F7FFE7E7F7F7E7E3C777C7EBD
:1008A000007F187E3C7F807C7E7FFC7D7F7FFE39D1
:1008B0007F3EFE007F00DE3C7F3EEE7C7F7FFE7E43
:1008C0003F7FFE7E3F7FFE7E1E5FFE7E007FFE6CD2
:1008D0003E777C6E6E7F00767F7F1C3E7F7EFE00C3
:1008E0007F3CF0FDFC013F1F0000F0F7013EFF1FC1
:1008F000FF07E0FFF97FFF9FF707C0FFFD7FFFCFF6
:10090000FF03801FF87FFEE7FF0300C0F97D00E0D2
:10091000FF0100FCF37BFCE3F70000FEF77FFEF72E
:10092000FF00009EF77FEFF77F0000FCEF7FDF07FF
:10093000000000FCEF3FFFE71F0000F8E307FFF3B4
:100940001F0000001838FEB90F0000C09F7F00F89C
:10095000070000E0DD7FFEF0030000C0BB77FF0171
:10096000000000C0BF7DFFFD030000809F7FFDFEF3
:1009700001000000007FDFFE000000003F7F7EDE00
:10098000000000007EFF387F00000000FC3E063FB4
:1009900000000000FCFE0E3F00000000007F707EA3
:1009A000000000007E00FE0000000000773FFF70A6
:1009B00000000000BF7FEFFE01000000807FFFBD50
:1009C000010000C08F7FFEFC030000E0DF7700FC29
:1009D000070000F0DD3FFCF0070000F01F00FE0301
:1009E000000000F08F3FBFC30F000000C07FFFE793
:1009F0003F0000F8E17FFFF73E0000FEF37DFFF7C8
:100A00007F0000FFF77E3EE0FF0000D7F77FC0E3E6
:100A1000E70080FFF33FFEE7FF01C0FF03307FCF19
:100A2000FF00C0FFF1037F9F7F008018F83FFF1F8A
:100A300000000067FC7FFF1DFF07E0FFFE7FFFBF98
:100A4000FF0F0078FC3FFF9FFF0F80FFFC3FFF9EE2
:100A5000FF0FE0FFF83FFF9EFF1FF0FFF19FFF9D9C
:100A6000FF1FF0FC0180FF9F7F1F70FF0180FF9F31
:100A7000FF1FF8FFF18FFF9FFF1FF8FFF91FFF1FF8
:100A8000FF1FF8FFFD3FFE1F0E0CF8FFFD3FFE0F9E
:100A9000C000F8FFFD77EE0FFF03F8FFFC6FFE8745
:100AA000FF07F0FFFC7FFCC3FF0FF0FFFCFFF8C166
:100AB000FB0FF0FFFEFF00E0F70FF0FFFEFF00E08E
:100AC000FF07F0FFFE7FC0C3FF07F07FFE7FE087D8
:100AD000FF07E03FFE7FF88FFF07C007FE7FFC1F88
:100AE000FF070000FE7FFC1FFF0F0078FC7FFC1F4C
:100AF000FF0FC0F3DC7FFE9FFF0FE0F7DC7FFE9F60
:100B0000FF1FF0EFFD7FFE9FFF1FF0EFFD7FFEBF99
:100B1000FF1FF0FFF93FFF3FFF0FF0FFF13FFF3FE7
:100B2000FF0FF8FF011FEF3FFF0FF8FF0100DF3F4E
:100B3000FF0EF8FFE100DF3FFE07F8FFF11F7F3FE8
:100B4000E007F8FFF93FFF3FC003F0FFF93FFF3F29
:100B50000E00F0FFF97FFF1F1F00F0FFFD7FFF1F5A
:100B6000FF03F0FFFD7FFF1FFF07F0FF3D7FFF8FBB
:100B7000FF0FF0FFFD7EFE87FF1FE0FFFD7D7C8005
:100B8000FF1FC0FFFC7F0080FF1F007CFC7B0087F5
:100B9000FF1F0000FC7FFC8FFF1F8003FC7FFC8F8A
:100BA000FF1FE07FFC7FFE9FFF0FE0FFFC7FFE9FAB
:100BB000BF1FF0FFFC7FFE9F7F1FF0FFF93FFE9FEE
:100BC0007F1FF0FFF93FFE9FFF1FF0FFF11FFF8F18
:100BD000FF0FF8FFE101FF97FF0FF8FF0100FF177C
:100BE000FF0FF8F7010EFF1BCE07F8FFE13FFF1FD5
:100BF0000003F8FFF17FFF1F0000F8FFF97FFF1FE0
:100C0000780078FFF97FFE1FFE01F0FEFD7FFE1FDA
:100C1000FF0FF0FFFD7FFE8FFF0FF0FFFD7FFE87D0
:100C2000FF1FF0FFFD7F1C80FB1FE0FFFDFF00802A
:100C3000FF1FC0FFFDFFC087FF1FC0FFBCFFF88F75
:100C4000FF1F0078C8FFFC8FFF1F0000FC7FFE9F86
:100C5000FB1FC007FC7FFE9FFF1FE07FFC7FFE9F06
:100C6000FF0FF0FFFC7FFE9FFF0FF0FFF87FFEBF3E
:100C7000FF0FF0FFF97FBEBFFF0FF0FFF13FDE3F38
:100C80007F0FF8FE013EDF3FFF0FF8FE0130EF3F20
:100C9000FF07F8FDF103EF7FFE07F8FBF90FEF7F89
:100CA000FC03F8FFF91FFF7FFC00F8FFFD7FFF3F0B
:100CB0003800F8FF7D7FFF1F0003F8FF7D7FFE1FD8
:100CC000C007F8FFFD7EFE0FFE0FF8FFFD7FFE0759
:100CD000FF0FF0FFFD7FFC80FF0FF0FFFC7F008027
:100CE000FF0FF0FFF87F008EFF0FE03FF83FF89F07
:100CF000FF1FC003F83FFCBFFF1F0000FC3FFEBF0B
:100D0000EF1FFF3FFE7FFE3FFE7FFE7F7F7FFF7F67
:100D1000FF7EFCFFBE7FFFBFFF3FF8FDFE3FFF3EB3
:100D2000FF0FF8FF7E7FF7BFFF1EFCFDFE7CFFBFBD
:100D3000FF3EFE7FFF7FFE3FFF7FFF3FFE3FFC0F3A
:100D4000FE7F7800AED580A83FD300408D14A1C8A7
:100D5000DA1281CFD9F1DB40200121007FAF445866
:100D600078005800075878001200077858001200E1
:100D70001480A00114A21880A04018A02CC8C8801C
:100D80002CC84058780012004078580012EA688059
:100D9000A00268A36E80A0146EA2C0587800C300A1
:100DA000C0785800C4EAC780A009C7A0C85800008E
:100DB000CA00CB380000CB00F158780091EBF178F5
:100DC00058009100F3587800C3EAF3785800C40043
:100DD000FD5878007D00FD7858004D0001B7050DE5
:100DE00001D7050B022A020002970300302C03FAF8
:100DF0000100282C03FC01003C6C28070100532C47
:100E000005FC01006D4C0F040060874C0C03006072
:100E1000A38C0FFF0130AB8C0F010030E34C0C03AF
:100E20000060ED4C0C030060181818181818180012
:100E300018180000000000180000EA0082180018CE
:100E40008318001818180018000018001800000077
:100E500000180018C8180018001800001800180022
:100E60000018001800180018581800185A00180028
:100E70000018001800EA00181800000018180000F8
:100E8000181800181818181800001800000000188A
:100E900080180000000082EA1818000018181818BE
:100EA0001818181818EB1818181000001800180057
:100EB00018001800000000001800181018000000AA
:100EC000000018EB1800180018001880180018000F
:100ED0001800180018000000180000181800000082
:100EE00000001818000018005B1810EAEA001880CB
:100EF0005A00003A00180000000000181800000016
:100F00000000180000180018181800001800180039
:100F10001800180018000000005B185B18000000A3
:100F200000001818185B1800FFFFFFFF55AA88245F
:100F3000000000000000000081307FED30731230AF
:100F40004E21303F4C1C10050102059F116C200002
:100F5000070102052605E81C0806010205D603382C
:100F600020080701030C160258101801010208F6A8
:100F70000178101801010208D6018018200301032E
:100F80000846018C1820030103084601A01820031D
:100F9000010308B600C80C20030102636E002C1484
:100FA00028020102631E0000000000004100000052
:100FB0000000200000010010400000400000000080
:100FC000220500004000000200080010020000108E
:100FD00040000041000201000000000080101141AB
:100FE0000000000000014000480012040000000062
:100FF0000000108200000041400040001201000883
:1010000001000000000001001180900201000011A9
:1010100020000400000008424000100100024010BF
:101020000101400200000001101201000040000018
:1010300041100240000000A854010000A800000177
:101040000012001000010000012002408000010099
:10105000000010120100004000204110800020021A
:1010600000001041800208000021100080000401EF
:1010700000084100024010200080420100004000B2
:10108000004010004240100000020800001100085B
:101090000110010000008100000000440040000138
:1010A0001002400008400010020002000000000092
:1010B0000049000000000000000210008000000055
:1010C00001001000000000020D00030700FF0008EF
:1010D000020D5C5F0700010408420A00030701FFDC
:1010E0005458420A045B0701000058420A5C5F073B
:1010F00001010058E20804190701FF002CE208462C
:101100005B070101162C320800192502FF122C3250
:10111000081A45250200002C3208465F250201000E
:101120002CDA071A242502FF0016DA073B452502B0
:10113000010B166207000E2502FE001E6207515FBA
:101140002502020F1E3607000E3403FE071636076F
:101150000F243403FF00163607253A340300001627
:1011600036073B5034030100163607515F34030243
:101170000016220725293403FF000A2207363A34D5
:101180000301050AE6060F1D3403FE001EE60642B3
:10119000503403020F1E0000000007000000600032
:1011A0003E00000000C10700008000780400003FFE
:1011B000800B0000C0030A0000007C0800000080D3
:1011C0001000000080100000000006000000800FEA
:1011D000000000F0010000003C0040E0010700605A
:1011E000F00F7D0820380FF55D2D3829551300FCD0
:1011F000AF030000FC29F90F003C0FD91800380F8D
:1012000035302DF807776620E00713696000007617
:10121000664000003030000000D818000000F80FD1
:101220000000000000000000000000FFC1FFFFFF01
:10123000FF00F8FFFF7F0080FBFFFF0000F0FFFFD3
:101240003F00F0FFFFFF03F0FFFFFF7FE0FFFFFF26
:101250007FE0FFFFFF7FE0FFFFFF07E0FFFFFF01F1
:10126000E0BF0FFE00FC1F077080E30F0360002249
:1012700080034000008001000000C0010000E0FF8A
:10128000010000C0FF01400000C0016000008003B9
:1012900070000080037000000F0FF800001FFFFFB8
:1012A0000100BFFFFF0380FFFFFF03C0FFFFFF033D
:1012B000E0FFFFFFFFFFFF20383E38203E1C1C08E8
:1012C00008020E3E0E0208081C1C3E180080DDDDE0
:1012D000DDDDDD0C018000000000800C81100C2899
:1012E0000E04001881901E30703F8630BF9F3E185C
:1012F0000E04893081907C2C303F8618B5103E0654
:101300004808020C018F1E0030308F0C39800C1EF3
:101310003898821808860C22402C801431281E5ED2
:101320007828003E818E3E2200808F22B9A07C1E4C
:1013300000008800A0AE3E00003F8000F9021E06BB
:101340007C900E0001AC0C290A3F820001A00C51D8
:1013500030008F0000A41E2948988200012A3E0612
:1013600030240600019E7C00383C8B2200803E1C0D
:1013700040048A3E010C1E22781E0014018E0C2AA5
:1013800000A48B18008A0C227818800C65801E1C23
:10139000082C800C55063E0070280018088A7C072F
:1013A00000008030418C3E7D3038803000801E57F8
:1013B00048048018650E0C007E04001C5482000056
:1013C0000000800C488CDDDDDDDDDD000101020167
:1013D0000202030102020302030304000103000FDF
:1013E00000070504000002030001020411241FBECF
:1013F000CFE5D2E0DEBFCDBF21E0A0E6B0E001C086
:101400001D92AF3AB207E1F77ED3E0C5F9C53F922E
:101410004F925F926F927F928F929F92AF92BF9204
:10142000CF92DF92EF92FF920F931F93CF93DF93B0
:10143000B82EA62EE901CF80D884002339F08B8105
:10144000698170E090E0B1D5C80ED91E50E0FA0174
:10145000E851FC4EA491FA01EC51FC4E9491FA0132
:10146000E052FC4EE491A91608F482C0EA1508F493
:101470007FC08A2F6A2F90D5982E4C0F5D1FFA01DE
:1014800083802A2F30E0F901E552FC4EE491BA81C5
:10149000CB811C2F110F110F110F1B0F8A2D891BD0
:1014A0006A2F660F660F660F77D5482FD0E06B2D39
:1014B00070E0CE017AD5B90178D568E0E62EF12C3E
:1014C000712C66246394AB2EB12C6E2F70E04B17F9
:1014D00078F1411768F5242F30E02A193B0937FFCE
:1014E00002C0295F3F4F53E0359527955A95E1F7A4
:1014F000280F392F311D2C0D3D1D512C50E0F42F9C
:10150000F7704F2EA515B9F0F9013490E32DF0E0F6
:10151000042C02C0F595E7950A94E2F7E623F72339
:10152000E553FC4EE4915E0F2C0F3D1F5394EACF20
:1015300050E00111592D4A0F581508F07628660C15
:10154000F1E0EF1AF10809F0C2CF872DDF91CF91BA
:101550001F910F91FF90EF90DF90CF90BF90AF90D1
:101560009F908F907F906F905F904F903F900895E5
:10157000702E7194EACF0F930130E9F028F0023019
:10158000B9F0841B621B02C0641B820F262F2F70D0
:10159000022E000C330B94E0220F331F9A95E1F7D3
:1015A0008F70820F932F911D85599F4F0F91089532
:1015B000640F821BEBCF840F620FE8CF8F7787B960
:1015C00087B187B9369A3699FECF84B195B108951F
:1015D00028E0C29887FDC09A87FFC098C29A880FFA
:1015E0002A95B9F7C298C09AB898C29AC298B89A80
:1015F000C0980895C09AC29AC098C298089586B3B8
:101600008695817090E008952F923F924F925F925D
:101610006F927F928F929F92AF92BF92CF92DF9202
:10162000EF92FF920F931F93CF93DF93CDB7DEB767
:101630006F970FB6F894DEBF0FBECDBFF12CE12C33
:101640007E2CD8DF88E7C4DF80E4C2DFA7EAB1E000
:10165000E8E01D92EA95E9F780916000C090610092
:101660000C2C000CDD08C80ED11C87FDDA9480918B
:101670006200C80ED11CF1E0CF22DD2467EC862E7B
:1016800060E1962E49E050E0B401CE010A967BD489
:10169000AA84BB84A114B10409F4ECC01C85812F79
:1016A000012E000C990BE816F9060CF4DFC08D85AD
:1016B000082E000C990B8E159F050CF4D7C00091D5
:1016C000620028894F85609161008091600053DF3E
:1016D000DC018C9184FFCAC02E85A22F022E000C43
:1016E000BB0B54E0B595A7955A95E1F72F702F5F86
:1016F0002A1B972D911B8989C114D104A9F08095CB
:101700003A89830F891B90E0622F022E000C770B21
:101710004CD48A0D9B1DA955BE4F215038F0FC01B9
:1017200034913D930196F9CF890FEDCF1F85C70105
:10173000CD2809F0A1C063E070E037D427EA31E09A
:101740003C8B2B8BD90130E020E0572D51708E550A
:10175000904F4C91EF85EE0FE50F60916A00E60F18
:10176000FF27FF1FE85DF04FE491E423253030F0C0
:10177000E11104C0FC01E20FF31FE491ED932F5F30
:101780003F4F2830310529F7512C412C412F50E093
:101790005F8F4E8F112309F4C2C02E8C3F8C24180A
:1017A0003508C10163E070E000D4885C904F9A8FE7
:1017B000898F44E4A42E4FE0B42E49E050E0B501F7
:1017C000CE010196E0D38A8190E0DC01022C02C0B8
:1017D000B595A7950A94E2F7BE8BAD8BC0906200D9
:1017E000B0916100BB8FE0916000EC8FF981FD8FBB
:1017F000898C9A8CDD24DA942D893E893327388FA1
:101800002F8BF4016490862D062C000C990B9C0103
:101810004F89588D241B350BE216F3060CF477C064
:10182000840F951FE816F9060CF071C00C2D2D2DB4
:10183000412F6B8D8C8D9FDEDC018C91982F9C7FCE
:10184000BD8D9B1364C081FF1DC0C826C0FC1AC09B
:10185000E9E0AE0EB11C27EA3FE02A153B0509F08E
:10186000ACCF11502FEF421A520A94CFF9E08F0EED
:10187000911C08CF17E05BCF6DEF7FEF96D3805EB2
:101880009E4F5CCF2F85022E000C330B22163306A1
:1018900029F484FD03C0DD2009F441C037EAC32EDA
:1018A00031E0D32E912C8D89870D8619682E01E0A9
:1018B0009E012F5F3F4F412F692D862DA8DD882E79
:1018C000D6018C9188218C9300E09E012F5F3F4FC1
:1018D000412F692D862D9BDDE0916A009F85E90FE0
:1018E000FF27FF1FE85DF04FE491E823113029F452
:1018F0008094809168008822E825D6018C91E82B9D
:10190000ED936D019394B8E09B12D1CFA1CFEFEF8F
:101910008E1A9E0AD394F2E0DF1273CF99CFAB896F
:10192000BC899D91BC8BAB8B80916700892750DE71
:10193000EFEAF1E02B893C89E217F30781F7C098C1
:10194000C29AC09A3FEFE31AF30A40E6E416F104A4
:1019500009F076CE0FEF912C812C11E0100F512E53
:10196000550C550C550C46DE88E732DE80E430DE3F
:10197000C4016BEF7FEF19D384579F4FF12CE12CFB
:1019800023EF422E400EDC01A85DBD4E6D01FC012F
:10199000E456FE4E3F015401F2E0AF1AB108AE2DFD
:1019A000E52DEE0D30916600832F81708E2920E0A9
:1019B000B1F0F0E0E553FD4E2491E11010C044E099
:1019C000441568F08091620090E065E070E0EDD22F
:1019D000880D991DFC01E755FD4EE4912E2B409199
:1019E00063000E3178F5A33009F06DC0842F47FFF6
:1019F00002C081E0840F8595082E000C990B8A1592
:101A00009B050CF420E0809169002827141654F1FE
:101A10001DC0143118F032FDF9CF5DC01E3018F032
:101A200031FDF4CF58C0183018F036FDEFCF53C059
:101A3000113061F335FDEACF4EC0A53018F0330FF9
:101A4000330B2323141674F0A33060F00C3150F4E0
:101A5000F601EE0DFF1DE4912E23F301EE0DFF1DA7
:101A6000E4912E2B822FB4DD5FEFE51AF50A88E0B2
:101A7000E816F10409F093CFC098C29AC09A9FEF7C
:101A8000891A990A012F1F3109F067CF1092680057
:101A9000109269006F960FB6F894DEBF0FBECDBFEF
:101AA000DF91CF911F910F91FF90EF90DF90CF903A
:101AB000BF90AF909F908F907F906F905F904F906E
:101AC0003F902F900895A43009F0B7CF1A3108F451
:101AD000A0CF33FD9BCF20E099CFFC0192B7983087
:101AE00010F09750FCCF838120916500821B890FF5
:101AF000181644F490916300981B909363008FEF45
:101B00008093690081CDCF93DF9300D000D000D0C7
:101B1000CDB7DEB783E08ABD83BF789480E48CBD07
:101B20008FEF8DBD87EC80BF87E886B987B3857D51
:101B300087BBBC9ABA9AB89AC29AC09A8FE39CE9BA
:101B40000197F1F700C0000055DD02E41DE07EE5DD
:101B5000E72E7DE0F72EF80184913ADD0F5F1F4FED
:101B6000E016F106C1F7C098C29AC09A8FE39CE9CB
:101B70000197F1F700C000004FE4C42EDD24D39498
:101B8000772473945CEDA52E5DE0B52E6CEE862E69
:101B90006DE0962EE0E6F0E0C60111920197E9F7BC
:101BA0007092600070926100709262008CE080938D
:101BB000630093E09093640040E051E068E27EE0CF
:101BC0008BE690E0E0D14CE350E06CEE7DE08BE6FC
:101BD00091E0D9D1EBE6F1E08181A081B0E0A05A9B
:101BE000BF4F1B968C93369621E0E73AF207A1F798
:101BF0001ABC81E083BF9AE090936A0066246A94DD
:101C00008091630018160CF0AAC18091660085FFD0
:101C100003C0EAE0E093640086FF03C0F3E0F093C2
:101C20006500F2DC80916A00882321F08150809366
:101C30006A00E6CF0091620020E041E0609161001F
:101C40008091600098DC7C01809167009091680031
:101C5000892B90916900892B10926700882361F08D
:101C60009091660094FF71C122B7293008F464C1D5
:101C70002850FBCF3110F4CF1091670080E89EDC34
:101C80008E5E9240883C910558F1332433941111B3
:101C900001C0312C80E892DC855F9140893F91053D
:101CA00040F4809162008F5F8370809362003324E0
:101CB000339483E883DC855F9140893F910508F088
:101CC0004BC0F701808183FD47C080916200813065
:101CD000C9F178F08230E1F180916000815035C027
:101CE000809162008150837080936200332433942A
:101CF000D1CF8091610081508093610011E083E831
:101D00005DDC8E5E9240883C910560F5209062001B
:101D10004090610050906000022D20E04FEF642D54
:101D2000852D29DCFC01808183FD1CC0F1E02F168C
:101D300009F455C02F1690F022E0221609F453C082
:101D400053944EC0809160008F5F80936000D6CF27
:101D5000809161008F5FD0CF10E0D1CF439440924B
:101D6000610011E0809160008F708093600080912D
:101D700061008F7080936100112309F43DC00CED68
:101D80001DE044E050E0B801CE010196FCD02A816C
:101D900080916100082E000C990B34E0880F991F88
:101DA0003A95E1F730916000830F911D37FD9A95C8
:101DB0002817190671F48B8199819130B1F48093C1
:101DC00060008C81809361008091660082FD60924A
:101DD00067000C5F1F4F8016910699F641CF5A9409
:101DE00050926000BECF4A94BACF90916200890FA2
:101DF000837080936200E8CF02DC892B09F03ACF30
:101E0000F701508052FE49C0C7018B5690400BE647
:101E100011E0F801908189130EC08481882311F0AC
:101E2000C8015BDE809163001816D4F482B7883055
:101E300028F08750FCCF0A5F1F4FEBCF2091640042
:101E400090E0820F911D27FD9A95F8019281981BD1
:101E5000928360926800D3DB892BE9F3D5DBD4DB76
:101E6000F801828118167CF484818111F9CEFFEF8C
:101E700029E688E1F15020408040E1F700C00000F1
:101E8000C8012BDEEDCEF701108280916600F801CB
:101E90009581892B80936600E3CE0EE51DE0F52D3C
:101EA000FC7F4F2E46E050E0B801CE0101966BD08A
:101EB000898190E085599F4FE816F906B1F58A812E
:101EC000481233C09091660028E3421611F18C81CC
:101ED000E0E84E1228C0982B90936600823061F49F
:101EE000EBE6F0E08191803119F4DF0111971C924B
:101EF00021E0EB36F207B0F38A81581A8B81582A19
:101F0000F7015082ED81F0E0E05AFF4F8E81838728
:101F1000A7CE93FFA5CEF701108280916600877F40
:101F200080936600E9CF892BFBCF0A5F1F4FA01675
:101F3000B10609F0B7CF94CE80916300885F820F1D
:101F400080936300905190936600FFEF23EC89E04B
:101F5000F15020408040E1F700C0000051CE809158
:101F60006A00803128F48F5F80936A004DDBF7CFE1
:101F7000E0E6F0E0C60111920197E9F745DB3FDBAF
:101F8000892BE9F707CEFB01DC0102C005900D9219
:101F900041505040D8F70895002480FD060E660F8A
:101FA00011F08695D1F7802D08950024552704C09F
:101FB000080E591F880F991F009729F0769567958D
:101FC000B8F37105B9F7802D952F0895F894FFCFD8
:00000001FF
